{
  "_format": "hh-sol-artifact-1",
  "contractName": "SecurityProxy",
  "sourceName": "contracts/securityProxy.sol",
  "abi": [
    {
      "inputs": [
        {
          "internalType": "address",
          "name": "_targetContract",
          "type": "address"
        }
      ],
      "stateMutability": "nonpayable",
      "type": "constructor"
    },
    {
      "anonymous": false,
      "inputs": [
        {
          "indexed": true,
          "internalType": "address",
          "name": "newAdmin",
          "type": "address"
        }
      ],
      "name": "AdminChanged",
      "type": "event"
    },
    {
      "anonymous": false,
      "inputs": [
        {
          "indexed": true,
          "internalType": "address",
          "name": "sender",
          "type": "address"
        },
        {
          "indexed": true,
          "internalType": "bytes4",
          "name": "selector",
          "type": "bytes4"
        },
        {
          "indexed": false,
          "internalType": "bytes",
          "name": "data",
          "type": "bytes"
        }
      ],
      "name": "CallBlocked",
      "type": "event"
    },
    {
      "anonymous": false,
      "inputs": [
        {
          "indexed": false,
          "internalType": "bool",
          "name": "frozen",
          "type": "bool"
        }
      ],
      "name": "StatusChanged",
      "type": "event"
    },
    {
      "stateMutability": "payable",
      "type": "fallback"
    },
    {
      "inputs": [],
      "name": "admin",
      "outputs": [
        {
          "internalType": "address",
          "name": "",
          "type": "address"
        }
      ],
      "stateMutability": "view",
      "type": "function"
    },
    {
      "inputs": [
        {
          "internalType": "address",
          "name": "_newAdmin",
          "type": "address"
        }
      ],
      "name": "changeAdmin",
      "outputs": [],
      "stateMutability": "nonpayable",
      "type": "function"
    },
    {
      "inputs": [],
      "name": "frozen",
      "outputs": [
        {
          "internalType": "bool",
          "name": "",
          "type": "bool"
        }
      ],
      "stateMutability": "view",
      "type": "function"
    },
    {
      "inputs": [],
      "name": "targetContract",
      "outputs": [
        {
          "internalType": "address",
          "name": "",
          "type": "address"
        }
      ],
      "stateMutability": "view",
      "type": "function"
    },
    {
      "stateMutability": "payable",
      "type": "receive"
    }
  ],
  "bytecode": "0x60a06040526001600060146101000a81548160ff02191690831515021790555034801561002b57600080fd5b50604051610d45380380610d45833981810160405281019061004d9190610199565b600073ffffffffffffffffffffffffffffffffffffffff168173ffffffffffffffffffffffffffffffffffffffff16036100bc576040517f08c379a00000000000000000000000000000000000000000000000000000000081526004016100b390610249565b60405180910390fd5b8073ffffffffffffffffffffffffffffffffffffffff1660808173ffffffffffffffffffffffffffffffffffffffff1681525050336000806101000a81548173ffffffffffffffffffffffffffffffffffffffff021916908373ffffffffffffffffffffffffffffffffffffffff16021790555050610269565b600080fd5b600073ffffffffffffffffffffffffffffffffffffffff82169050919050565b60006101668261013b565b9050919050565b6101768161015b565b811461018157600080fd5b50565b6000815190506101938161016d565b92915050565b6000602082840312156101af576101ae610136565b5b60006101bd84828501610184565b91505092915050565b600082825260208201905092915050565b7f536563757269747950726f78793a20696e76616c69642074617267657420616460008201527f6472657373000000000000000000000000000000000000000000000000000000602082015250565b60006102336025836101c6565b915061023e826101d7565b604082019050919050565b6000602082019050818103600083015261026281610226565b9050919050565b608051610ab36102926000396000818161010c015281816102c001526105a50152610ab36000f3fe6080604052600436106100435760003560e01c8063054f7d9c146103635780638f2839701461038e578063bd90df70146103b7578063f851a440146103e2576101d6565b366101d657600060149054906101000a900460ff161561010857600060e01b7bffffffffffffffffffffffffffffffffffffffffffffffffffffffff19163373ffffffffffffffffffffffffffffffffffffffff167f6b6fd3801f12096e0c2f47085f1a91a55a51db8eb41ed7b63a19be7d4b01cf846040516100c590610622565b60405180910390a36040517f08c379a00000000000000000000000000000000000000000000000000000000081526004016100ff906106c5565b60405180910390fd5b60007f000000000000000000000000000000000000000000000000000000000000000073ffffffffffffffffffffffffffffffffffffffff163460405161014e90610713565b60006040518083038185875af1925050503d806000811461018b576040519150601f19603f3d011682016040523d82523d6000602084013e610190565b606091505b50509050806101d4576040517f08c379a00000000000000000000000000000000000000000000000000000000081526004016101cb9061079a565b60405180910390fd5b005b600060149054906101000a900460ff16156102bb576000357fffffffff00000000000000000000000000000000000000000000000000000000167bffffffffffffffffffffffffffffffffffffffffffffffffffffffff19163373ffffffffffffffffffffffffffffffffffffffff167f6b6fd3801f12096e0c2f47085f1a91a55a51db8eb41ed7b63a19be7d4b01cf84600036604051610278929190610807565b60405180910390a36040517f08c379a00000000000000000000000000000000000000000000000000000000081526004016102b2906106c5565b60405180910390fd5b6000807f000000000000000000000000000000000000000000000000000000000000000073ffffffffffffffffffffffffffffffffffffffff1634600036604051610307929190610850565b60006040518083038185875af1925050503d8060008114610344576040519150601f19603f3d011682016040523d82523d6000602084013e610349565b606091505b50915091508161035b57805160208201fd5b805160208201f35b34801561036f57600080fd5b5061037861040d565b6040516103859190610884565b60405180910390f35b34801561039a57600080fd5b506103b560048036038101906103b09190610902565b610420565b005b3480156103c357600080fd5b506103cc6105a3565b6040516103d9919061093e565b60405180910390f35b3480156103ee57600080fd5b506103f76105c7565b604051610404919061093e565b60405180910390f35b600060149054906101000a900460ff1681565b60008054906101000a900473ffffffffffffffffffffffffffffffffffffffff1673ffffffffffffffffffffffffffffffffffffffff163373ffffffffffffffffffffffffffffffffffffffff16146104ae576040517f08c379a00000000000000000000000000000000000000000000000000000000081526004016104a5906109cb565b60405180910390fd5b600073ffffffffffffffffffffffffffffffffffffffff168173ffffffffffffffffffffffffffffffffffffffff160361051d576040517f08c379a000000000000000000000000000000000000000000000000000000000815260040161051490610a5d565b60405180910390fd5b806000806101000a81548173ffffffffffffffffffffffffffffffffffffffff021916908373ffffffffffffffffffffffffffffffffffffffff1602179055508073ffffffffffffffffffffffffffffffffffffffff167f7ce7ec0b50378fb6c0186ffb5f48325f6593fcb4ca4386f21861af3129188f5c60405160405180910390a250565b7f000000000000000000000000000000000000000000000000000000000000000081565b60008054906101000a900473ffffffffffffffffffffffffffffffffffffffff1681565b600082825260208201905092915050565b50565b600061060c6000836105eb565b9150610617826105fc565b600082019050919050565b6000602082019050818103600083015261063b816105ff565b9050919050565b600082825260208201905092915050565b7f536563757269747950726f78793a20636f6e74726163742069732066726f7a6560008201527f6e2064756520746f207365637572697479207269736b00000000000000000000602082015250565b60006106af603683610642565b91506106ba82610653565b604082019050919050565b600060208201905081810360008301526106de816106a2565b9050919050565b600081905092915050565b60006106fd6000836106e5565b9150610708826105fc565b600082019050919050565b600061071e826106f0565b9150819050919050565b7f536563757269747950726f78793a20455448207472616e73666572206661696c60008201527f6564000000000000000000000000000000000000000000000000000000000000602082015250565b6000610784602283610642565b915061078f82610728565b604082019050919050565b600060208201905081810360008301526107b381610777565b9050919050565b82818337600083830152505050565b6000601f19601f8301169050919050565b60006107e683856105eb565b93506107f38385846107ba565b6107fc836107c9565b840190509392505050565b600060208201905081810360008301526108228184866107da565b90509392505050565b600061083783856106e5565b93506108448385846107ba565b82840190509392505050565b600061085d82848661082b565b91508190509392505050565b60008115159050919050565b61087e81610869565b82525050565b60006020820190506108996000830184610875565b92915050565b600080fd5b600073ffffffffffffffffffffffffffffffffffffffff82169050919050565b60006108cf826108a4565b9050919050565b6108df816108c4565b81146108ea57600080fd5b50565b6000813590506108fc816108d6565b92915050565b6000602082840312156109185761091761089f565b5b6000610926848285016108ed565b91505092915050565b610938816108c4565b82525050565b6000602082019050610953600083018461092f565b92915050565b7f536563757269747950726f78793a2063616c6c6572206973206e6f742074686560008201527f2061646d696e0000000000000000000000000000000000000000000000000000602082015250565b60006109b5602683610642565b91506109c082610959565b604082019050919050565b600060208201905081810360008301526109e4816109a8565b9050919050565b7f536563757269747950726f78793a20696e76616c69642061646d696e2061646460008201527f7265737300000000000000000000000000000000000000000000000000000000602082015250565b6000610a47602483610642565b9150610a52826109eb565b604082019050919050565b60006020820190508181036000830152610a7681610a3a565b905091905056fea26469706673582212201fd9e75f19ca56c4f1ec0387d5175e099ed91e175b50469b60d949eeae582e5964736f6c634300081c0033",
  "linkReferences": {},
  "deployedLinkReferences": {}
}