{
  "_format": "hh-sol-artifact-1",
  "contractName": "SimpleStorage2",
  "sourceName": "contracts/payable.sol",
  "abi": [
    {
      "inputs": [],
      "stateMutability": "nonpayable",
      "type": "constructor"
    },
    {
      "anonymous": false,
      "inputs": [
        {
          "indexed": false,
          "internalType": "address",
          "name": "from",
          "type": "address"
        },
        {
          "indexed": false,
          "internalType": "uint256",
          "name": "amount",
          "type": "uint256"
        }
      ],
      "name": "EtherReceived",
      "type": "event"
    },
    {
      "anonymous": false,
      "inputs": [
        {
          "indexed": false,
          "internalType": "address",
          "name": "to",
          "type": "address"
        },
        {
          "indexed": false,
          "internalType": "uint256",
          "name": "amount",
          "type": "uint256"
        }
      ],
      "name": "EtherWithdrawn",
      "type": "event"
    },
    {
      "anonymous": false,
      "inputs": [
        {
          "indexed": false,
          "internalType": "uint256",
          "name": "newValue",
          "type": "uint256"
        },
        {
          "indexed": false,
          "internalType": "address",
          "name": "updatedBy",
          "type": "address"
        }
      ],
      "name": "ValueUpdated",
      "type": "event"
    },
    {
      "stateMutability": "payable",
      "type": "fallback"
    },
    {
      "inputs": [
        {
          "internalType": "address",
          "name": "",
          "type": "address"
        }
      ],
      "name": "deposits",
      "outputs": [
        {
          "internalType": "uint256",
          "name": "",
          "type": "uint256"
        }
      ],
      "stateMutability": "view",
      "type": "function"
    },
    {
      "inputs": [],
      "name": "getBalance",
      "outputs": [
        {
          "internalType": "uint256",
          "name": "",
          "type": "uint256"
        }
      ],
      "stateMutability": "view",
      "type": "function"
    },
    {
      "inputs": [],
      "name": "owner",
      "outputs": [
        {
          "internalType": "address",
          "name": "",
          "type": "address"
        }
      ],
      "stateMutability": "view",
      "type": "function"
    },
    {
      "inputs": [],
      "name": "retrieve",
      "outputs": [
        {
          "internalType": "uint256",
          "name": "",
          "type": "uint256"
        }
      ],
      "stateMutability": "view",
      "type": "function"
    },
    {
      "inputs": [
        {
          "internalType": "uint256",
          "name": "num",
          "type": "uint256"
        }
      ],
      "name": "store",
      "outputs": [],
      "stateMutability": "nonpayable",
      "type": "function"
    },
    {
      "inputs": [
        {
          "internalType": "uint256",
          "name": "amount",
          "type": "uint256"
        }
      ],
      "name": "withdraw",
      "outputs": [],
      "stateMutability": "nonpayable",
      "type": "function"
    },
    {
      "stateMutability": "payable",
      "type": "receive"
    }
  ],
  "bytecode": "0x6080604052348015600f57600080fd5b5033600160006101000a81548173ffffffffffffffffffffffffffffffffffffffff021916908373ffffffffffffffffffffffffffffffffffffffff160217905550600080819055506107d7806100676000396000f3fe6080604052600436106100595760003560e01c806312065fe0146101805780632e1a7d4d146101ab5780632e64cec1146101d45780636057361d146101ff5780638da5cb5b14610228578063fc7e286d14610253576100ef565b366100ef5734600260003373ffffffffffffffffffffffffffffffffffffffff1673ffffffffffffffffffffffffffffffffffffffff16815260200190815260200160002060008282546100ad91906104f5565b925050819055507f1e57e3bb474320be3d2c77138f75b7c3941292d647f5f9634e33a8e94e0e069b33346040516100e5929190610579565b60405180910390a1005b34600260003373ffffffffffffffffffffffffffffffffffffffff1673ffffffffffffffffffffffffffffffffffffffff168152602001908152602001600020600082825461013e91906104f5565b925050819055507f1e57e3bb474320be3d2c77138f75b7c3941292d647f5f9634e33a8e94e0e069b3334604051610176929190610579565b60405180910390a1005b34801561018c57600080fd5b50610195610290565b6040516101a291906105a2565b60405180910390f35b3480156101b757600080fd5b506101d260048036038101906101cd91906105ee565b610298565b005b3480156101e057600080fd5b506101e9610432565b6040516101f691906105a2565b60405180910390f35b34801561020b57600080fd5b50610226600480360381019061022191906105ee565b61043b565b005b34801561023457600080fd5b5061023d61047e565b60405161024a919061061b565b60405180910390f35b34801561025f57600080fd5b5061027a60048036038101906102759190610662565b6104a4565b60405161028791906105a2565b60405180910390f35b600047905090565b600160009054906101000a900473ffffffffffffffffffffffffffffffffffffffff1673ffffffffffffffffffffffffffffffffffffffff163373ffffffffffffffffffffffffffffffffffffffff1614610328576040517f08c379a000000000000000000000000000000000000000000000000000000000815260040161031f906106ec565b60405180910390fd5b8047101561036b576040517f08c379a000000000000000000000000000000000000000000000000000000000815260040161036290610758565b60405180910390fd5b600160009054906101000a900473ffffffffffffffffffffffffffffffffffffffff1673ffffffffffffffffffffffffffffffffffffffff166108fc829081150290604051600060405180830381858888f193505050501580156103d3573d6000803e3d6000fd5b507f06097061aeda806b5e9cb4133d9899f332ff0913956567fc0f7ea15e3d19947c600160009054906101000a900473ffffffffffffffffffffffffffffffffffffffff1682604051610427929190610579565b60405180910390a150565b60008054905090565b806000819055507f96b66f199ddfd2b6ba158a38ed75afe9c9da657c856767e38803d16c1cf9451e8133604051610473929190610778565b60405180910390a150565b600160009054906101000a900473ffffffffffffffffffffffffffffffffffffffff1681565b60026020528060005260406000206000915090505481565b6000819050919050565b7f4e487b7100000000000000000000000000000000000000000000000000000000600052601160045260246000fd5b6000610500826104bc565b915061050b836104bc565b9250828201905080821115610523576105226104c6565b5b92915050565b600073ffffffffffffffffffffffffffffffffffffffff82169050919050565b600061055482610529565b9050919050565b61056481610549565b82525050565b610573816104bc565b82525050565b600060408201905061058e600083018561055b565b61059b602083018461056a565b9392505050565b60006020820190506105b7600083018461056a565b92915050565b600080fd5b6105cb816104bc565b81146105d657600080fd5b50565b6000813590506105e8816105c2565b92915050565b600060208284031215610604576106036105bd565b5b6000610612848285016105d9565b91505092915050565b6000602082019050610630600083018461055b565b92915050565b61063f81610549565b811461064a57600080fd5b50565b60008135905061065c81610636565b92915050565b600060208284031215610678576106776105bd565b5b60006106868482850161064d565b91505092915050565b600082825260208201905092915050565b7f4f6e6c79206f776e65722063616e207769746864726177000000000000000000600082015250565b60006106d660178361068f565b91506106e1826106a0565b602082019050919050565b60006020820190508181036000830152610705816106c9565b9050919050565b7f496e73756666696369656e742062616c616e6365000000000000000000000000600082015250565b600061074260148361068f565b915061074d8261070c565b602082019050919050565b6000602082019050818103600083015261077181610735565b9050919050565b600060408201905061078d600083018561056a565b61079a602083018461055b565b939250505056fea2646970667358221220af0980ce6e988bc951946278835255f11247a0e918279410665b2354e44a224864736f6c634300081c0033",
  "linkReferences": {},
  "deployedLinkReferences": {}
}