{"contracts/securityProxy.sol":{"SecurityProxy":{"abi":[{"inputs":[{"internalType":"address","name":"_targetContract","type":"address"}],"stateMutability":"nonpayable","type":"constructor"},{"anonymous":false,"inputs":[{"indexed":true,"internalType":"address","name":"newAdmin","type":"address"}],"name":"AdminChanged","type":"event"},{"anonymous":false,"inputs":[{"indexed":true,"internalType":"address","name":"sender","type":"address"},{"indexed":true,"internalType":"bytes4","name":"selector","type":"bytes4"},{"indexed":false,"internalType":"bytes","name":"data","type":"bytes"}],"name":"CallBlocked","type":"event"},{"anonymous":false,"inputs":[{"indexed":false,"internalType":"bool","name":"frozen","type":"bool"}],"name":"StatusChanged","type":"event"},{"stateMutability":"payable","type":"fallback"},{"inputs":[],"name":"admin","outputs":[{"internalType":"address","name":"","type":"address"}],"stateMutability":"view","type":"function"},{"inputs":[{"internalType":"address","name":"_newAdmin","type":"address"}],"name":"changeAdmin","outputs":[],"stateMutability":"nonpayable","type":"function"},{"inputs":[],"name":"frozen","outputs":[{"internalType":"bool","name":"","type":"bool"}],"stateMutability":"view","type":"function"},{"inputs":[],"name":"targetContract","outputs":[{"internalType":"address","name":"","type":"address"}],"stateMutability":"view","type":"function"},{"stateMutability":"payable","type":"receive"}],"evm":{"bytecode":{"linkReferences":{},"object":"60a06040526001600060146101000a81548160ff02191690831515021790555034801561002b57600080fd5b50604051610d45380380610d45833981810160405281019061004d9190610199565b600073ffffffffffffffffffffffffffffffffffffffff168173ffffffffffffffffffffffffffffffffffffffff16036100bc576040517f08c379a00000000000000000000000000000000000000000000000000000000081526004016100b390610249565b60405180910390fd5b8073ffffffffffffffffffffffffffffffffffffffff1660808173ffffffffffffffffffffffffffffffffffffffff1681525050336000806101000a81548173ffffffffffffffffffffffffffffffffffffffff021916908373ffffffffffffffffffffffffffffffffffffffff16021790555050610269565b600080fd5b600073ffffffffffffffffffffffffffffffffffffffff82169050919050565b60006101668261013b565b9050919050565b6101768161015b565b811461018157600080fd5b50565b6000815190506101938161016d565b92915050565b6000602082840312156101af576101ae610136565b5b60006101bd84828501610184565b91505092915050565b600082825260208201905092915050565b7f536563757269747950726f78793a20696e76616c69642074617267657420616460008201527f6472657373000000000000000000000000000000000000000000000000000000602082015250565b60006102336025836101c6565b915061023e826101d7565b604082019050919050565b6000602082019050818103600083015261026281610226565b9050919050565b608051610ab36102926000396000818161010c015281816102c001526105a50152610ab36000f3fe6080604052600436106100435760003560e01c8063054f7d9c146103635780638f2839701461038e578063bd90df70146103b7578063f851a440146103e2576101d6565b366101d657600060149054906101000a900460ff161561010857600060e01b7bffffffffffffffffffffffffffffffffffffffffffffffffffffffff19163373ffffffffffffffffffffffffffffffffffffffff167f6b6fd3801f12096e0c2f47085f1a91a55a51db8eb41ed7b63a19be7d4b01cf846040516100c590610622565b60405180910390a36040517f08c379a00000000000000000000000000000000000000000000000000000000081526004016100ff906106c5565b60405180910390fd5b60007f000000000000000000000000000000000000000000000000000000000000000073ffffffffffffffffffffffffffffffffffffffff163460405161014e90610713565b60006040518083038185875af1925050503d806000811461018b576040519150601f19603f3d011682016040523d82523d6000602084013e610190565b606091505b50509050806101d4576040517f08c379a00000000000000000000000000000000000000000000000000000000081526004016101cb9061079a565b60405180910390fd5b005b600060149054906101000a900460ff16156102bb576000357fffffffff00000000000000000000000000000000000000000000000000000000167bffffffffffffffffffffffffffffffffffffffffffffffffffffffff19163373ffffffffffffffffffffffffffffffffffffffff167f6b6fd3801f12096e0c2f47085f1a91a55a51db8eb41ed7b63a19be7d4b01cf84600036604051610278929190610807565b60405180910390a36040517f08c379a00000000000000000000000000000000000000000000000000000000081526004016102b2906106c5565b60405180910390fd5b6000807f000000000000000000000000000000000000000000000000000000000000000073ffffffffffffffffffffffffffffffffffffffff1634600036604051610307929190610850565b60006040518083038185875af1925050503d8060008114610344576040519150601f19603f3d011682016040523d82523d6000602084013e610349565b606091505b50915091508161035b57805160208201fd5b805160208201f35b34801561036f57600080fd5b5061037861040d565b6040516103859190610884565b60405180910390f35b34801561039a57600080fd5b506103b560048036038101906103b09190610902565b610420565b005b3480156103c357600080fd5b506103cc6105a3565b6040516103d9919061093e565b60405180910390f35b3480156103ee57600080fd5b506103f76105c7565b604051610404919061093e565b60405180910390f35b600060149054906101000a900460ff1681565b60008054906101000a900473ffffffffffffffffffffffffffffffffffffffff1673ffffffffffffffffffffffffffffffffffffffff163373ffffffffffffffffffffffffffffffffffffffff16146104ae576040517f08c379a00000000000000000000000000000000000000000000000000000000081526004016104a5906109cb565b60405180910390fd5b600073ffffffffffffffffffffffffffffffffffffffff168173ffffffffffffffffffffffffffffffffffffffff160361051d576040517f08c379a000000000000000000000000000000000000000000000000000000000815260040161051490610a5d565b60405180910390fd5b806000806101000a81548173ffffffffffffffffffffffffffffffffffffffff021916908373ffffffffffffffffffffffffffffffffffffffff1602179055508073ffffffffffffffffffffffffffffffffffffffff167f7ce7ec0b50378fb6c0186ffb5f48325f6593fcb4ca4386f21861af3129188f5c60405160405180910390a250565b7f000000000000000000000000000000000000000000000000000000000000000081565b60008054906101000a900473ffffffffffffffffffffffffffffffffffffffff1681565b600082825260208201905092915050565b50565b600061060c6000836105eb565b9150610617826105fc565b600082019050919050565b6000602082019050818103600083015261063b816105ff565b9050919050565b600082825260208201905092915050565b7f536563757269747950726f78793a20636f6e74726163742069732066726f7a6560008201527f6e2064756520746f207365637572697479207269736b00000000000000000000602082015250565b60006106af603683610642565b91506106ba82610653565b604082019050919050565b600060208201905081810360008301526106de816106a2565b9050919050565b600081905092915050565b60006106fd6000836106e5565b9150610708826105fc565b600082019050919050565b600061071e826106f0565b9150819050919050565b7f536563757269747950726f78793a20455448207472616e73666572206661696c60008201527f6564000000000000000000000000000000000000000000000000000000000000602082015250565b6000610784602283610642565b915061078f82610728565b604082019050919050565b600060208201905081810360008301526107b381610777565b9050919050565b82818337600083830152505050565b6000601f19601f8301169050919050565b60006107e683856105eb565b93506107f38385846107ba565b6107fc836107c9565b840190509392505050565b600060208201905081810360008301526108228184866107da565b90509392505050565b600061083783856106e5565b93506108448385846107ba565b82840190509392505050565b600061085d82848661082b565b91508190509392505050565b60008115159050919050565b61087e81610869565b82525050565b60006020820190506108996000830184610875565b92915050565b600080fd5b600073ffffffffffffffffffffffffffffffffffffffff82169050919050565b60006108cf826108a4565b9050919050565b6108df816108c4565b81146108ea57600080fd5b50565b6000813590506108fc816108d6565b92915050565b6000602082840312156109185761091761089f565b5b6000610926848285016108ed565b91505092915050565b610938816108c4565b82525050565b6000602082019050610953600083018461092f565b92915050565b7f536563757269747950726f78793a2063616c6c6572206973206e6f742074686560008201527f2061646d696e0000000000000000000000000000000000000000000000000000602082015250565b60006109b5602683610642565b91506109c082610959565b604082019050919050565b600060208201905081810360008301526109e4816109a8565b9050919050565b7f536563757269747950726f78793a20696e76616c69642061646d696e2061646460008201527f7265737300000000000000000000000000000000000000000000000000000000602082015250565b6000610a47602483610642565b9150610a52826109eb565b604082019050919050565b60006020820190508181036000830152610a7681610a3a565b905091905056fea26469706673582212201fd9e75f19ca56c4f1ec0387d5175e099ed91e175b50469b60d949eeae582e5964736f6c634300081c0033","opcodes":"PUSH1 0xA0 PUSH1 0x40 MSTORE PUSH1 0x1 PUSH1 0x0 PUSH1 0x14 PUSH2 0x100 EXP DUP2 SLOAD DUP2 PUSH1 0xFF MUL NOT AND SWAP1 DUP4 ISZERO ISZERO MUL OR SWAP1 SSTORE POP CALLVALUE DUP1 ISZERO PUSH2 0x2B JUMPI PUSH1 0x0 DUP1 REVERT JUMPDEST POP PUSH1 0x40 MLOAD PUSH2 0xD45 CODESIZE SUB DUP1 PUSH2 0xD45 DUP4 CODECOPY DUP2 DUP2 ADD PUSH1 0x40 MSTORE DUP2 ADD SWAP1 PUSH2 0x4D SWAP2 SWAP1 PUSH2 0x199 JUMP JUMPDEST PUSH1 0x0 PUSH20 0xFFFFFFFFFFFFFFFFFFFFFFFFFFFFFFFFFFFFFFFF AND DUP2 PUSH20 0xFFFFFFFFFFFFFFFFFFFFFFFFFFFFFFFFFFFFFFFF AND SUB PUSH2 0xBC JUMPI PUSH1 0x40 MLOAD PUSH32 0x8C379A000000000000000000000000000000000000000000000000000000000 DUP2 MSTORE PUSH1 0x4 ADD PUSH2 0xB3 SWAP1 PUSH2 0x249 JUMP JUMPDEST PUSH1 0x40 MLOAD DUP1 SWAP2 SUB SWAP1 REVERT JUMPDEST DUP1 PUSH20 0xFFFFFFFFFFFFFFFFFFFFFFFFFFFFFFFFFFFFFFFF AND PUSH1 0x80 DUP2 PUSH20 0xFFFFFFFFFFFFFFFFFFFFFFFFFFFFFFFFFFFFFFFF AND DUP2 MSTORE POP POP CALLER PUSH1 0x0 DUP1 PUSH2 0x100 EXP DUP2 SLOAD DUP2 PUSH20 0xFFFFFFFFFFFFFFFFFFFFFFFFFFFFFFFFFFFFFFFF MUL NOT AND SWAP1 DUP4 PUSH20 0xFFFFFFFFFFFFFFFFFFFFFFFFFFFFFFFFFFFFFFFF AND MUL OR SWAP1 SSTORE POP POP PUSH2 0x269 JUMP JUMPDEST PUSH1 0x0 DUP1 REVERT JUMPDEST PUSH1 0x0 PUSH20 0xFFFFFFFFFFFFFFFFFFFFFFFFFFFFFFFFFFFFFFFF DUP3 AND SWAP1 POP SWAP2 SWAP1 POP JUMP JUMPDEST PUSH1 0x0 PUSH2 0x166 DUP3 PUSH2 0x13B JUMP JUMPDEST SWAP1 POP SWAP2 SWAP1 POP JUMP JUMPDEST PUSH2 0x176 DUP2 PUSH2 0x15B JUMP JUMPDEST DUP2 EQ PUSH2 0x181 JUMPI PUSH1 0x0 DUP1 REVERT JUMPDEST POP JUMP JUMPDEST PUSH1 0x0 DUP2 MLOAD SWAP1 POP PUSH2 0x193 DUP2 PUSH2 0x16D JUMP JUMPDEST SWAP3 SWAP2 POP POP JUMP JUMPDEST PUSH1 0x0 PUSH1 0x20 DUP3 DUP5 SUB SLT ISZERO PUSH2 0x1AF JUMPI PUSH2 0x1AE PUSH2 0x136 JUMP JUMPDEST JUMPDEST PUSH1 0x0 PUSH2 0x1BD DUP5 DUP3 DUP6 ADD PUSH2 0x184 JUMP JUMPDEST SWAP2 POP POP SWAP3 SWAP2 POP POP JUMP JUMPDEST PUSH1 0x0 DUP3 DUP3 MSTORE PUSH1 0x20 DUP3 ADD SWAP1 POP SWAP3 SWAP2 POP POP JUMP JUMPDEST PUSH32 0x536563757269747950726F78793A20696E76616C696420746172676574206164 PUSH1 0x0 DUP3 ADD MSTORE PUSH32 0x6472657373000000000000000000000000000000000000000000000000000000 PUSH1 0x20 DUP3 ADD MSTORE POP JUMP JUMPDEST PUSH1 0x0 PUSH2 0x233 PUSH1 0x25 DUP4 PUSH2 0x1C6 JUMP JUMPDEST SWAP2 POP PUSH2 0x23E DUP3 PUSH2 0x1D7 JUMP JUMPDEST PUSH1 0x40 DUP3 ADD SWAP1 POP SWAP2 SWAP1 POP JUMP JUMPDEST PUSH1 0x0 PUSH1 0x20 DUP3 ADD SWAP1 POP DUP2 DUP2 SUB PUSH1 0x0 DUP4 ADD MSTORE PUSH2 0x262 DUP2 PUSH2 0x226 JUMP JUMPDEST SWAP1 POP SWAP2 SWAP1 POP JUMP JUMPDEST PUSH1 0x80 MLOAD PUSH2 0xAB3 PUSH2 0x292 PUSH1 0x0 CODECOPY PUSH1 0x0 DUP2 DUP2 PUSH2 0x10C ADD MSTORE DUP2 DUP2 PUSH2 0x2C0 ADD MSTORE PUSH2 0x5A5 ADD MSTORE PUSH2 0xAB3 PUSH1 0x0 RETURN INVALID PUSH1 0x80 PUSH1 0x40 MSTORE PUSH1 0x4 CALLDATASIZE LT PUSH2 0x43 JUMPI PUSH1 0x0 CALLDATALOAD PUSH1 0xE0 SHR DUP1 PUSH4 0x54F7D9C EQ PUSH2 0x363 JUMPI DUP1 PUSH4 0x8F283970 EQ PUSH2 0x38E JUMPI DUP1 PUSH4 0xBD90DF70 EQ PUSH2 0x3B7 JUMPI DUP1 PUSH4 0xF851A440 EQ PUSH2 0x3E2 JUMPI PUSH2 0x1D6 JUMP JUMPDEST CALLDATASIZE PUSH2 0x1D6 JUMPI PUSH1 0x0 PUSH1 0x14 SWAP1 SLOAD SWAP1 PUSH2 0x100 EXP SWAP1 DIV PUSH1 0xFF AND ISZERO PUSH2 0x108 JUMPI PUSH1 0x0 PUSH1 0xE0 SHL PUSH28 0xFFFFFFFFFFFFFFFFFFFFFFFFFFFFFFFFFFFFFFFFFFFFFFFFFFFFFFFF NOT AND CALLER PUSH20 0xFFFFFFFFFFFFFFFFFFFFFFFFFFFFFFFFFFFFFFFF AND PUSH32 0x6B6FD3801F12096E0C2F47085F1A91A55A51DB8EB41ED7B63A19BE7D4B01CF84 PUSH1 0x40 MLOAD PUSH2 0xC5 SWAP1 PUSH2 0x622 JUMP JUMPDEST PUSH1 0x40 MLOAD DUP1 SWAP2 SUB SWAP1 LOG3 PUSH1 0x40 MLOAD PUSH32 0x8C379A000000000000000000000000000000000000000000000000000000000 DUP2 MSTORE PUSH1 0x4 ADD PUSH2 0xFF SWAP1 PUSH2 0x6C5 JUMP JUMPDEST PUSH1 0x40 MLOAD DUP1 SWAP2 SUB SWAP1 REVERT JUMPDEST PUSH1 0x0 PUSH32 0x0 PUSH20 0xFFFFFFFFFFFFFFFFFFFFFFFFFFFFFFFFFFFFFFFF AND CALLVALUE PUSH1 0x40 MLOAD PUSH2 0x14E SWAP1 PUSH2 0x713 JUMP JUMPDEST PUSH1 0x0 PUSH1 0x40 MLOAD DUP1 DUP4 SUB DUP2 DUP6 DUP8 GAS CALL SWAP3 POP POP POP RETURNDATASIZE DUP1 PUSH1 0x0 DUP2 EQ PUSH2 0x18B JUMPI PUSH1 0x40 MLOAD SWAP2 POP PUSH1 0x1F NOT PUSH1 0x3F RETURNDATASIZE ADD AND DUP3 ADD PUSH1 0x40 MSTORE RETURNDATASIZE DUP3 MSTORE RETURNDATASIZE PUSH1 0x0 PUSH1 0x20 DUP5 ADD RETURNDATACOPY PUSH2 0x190 JUMP JUMPDEST PUSH1 0x60 SWAP2 POP JUMPDEST POP POP SWAP1 POP DUP1 PUSH2 0x1D4 JUMPI PUSH1 0x40 MLOAD PUSH32 0x8C379A000000000000000000000000000000000000000000000000000000000 DUP2 MSTORE PUSH1 0x4 ADD PUSH2 0x1CB SWAP1 PUSH2 0x79A JUMP JUMPDEST PUSH1 0x40 MLOAD DUP1 SWAP2 SUB SWAP1 REVERT JUMPDEST STOP JUMPDEST PUSH1 0x0 PUSH1 0x14 SWAP1 SLOAD SWAP1 PUSH2 0x100 EXP SWAP1 DIV PUSH1 0xFF AND ISZERO PUSH2 0x2BB JUMPI PUSH1 0x0 CALLDATALOAD PUSH32 0xFFFFFFFF00000000000000000000000000000000000000000000000000000000 AND PUSH28 0xFFFFFFFFFFFFFFFFFFFFFFFFFFFFFFFFFFFFFFFFFFFFFFFFFFFFFFFF NOT AND CALLER PUSH20 0xFFFFFFFFFFFFFFFFFFFFFFFFFFFFFFFFFFFFFFFF AND PUSH32 0x6B6FD3801F12096E0C2F47085F1A91A55A51DB8EB41ED7B63A19BE7D4B01CF84 PUSH1 0x0 CALLDATASIZE PUSH1 0x40 MLOAD PUSH2 0x278 SWAP3 SWAP2 SWAP1 PUSH2 0x807 JUMP JUMPDEST PUSH1 0x40 MLOAD DUP1 SWAP2 SUB SWAP1 LOG3 PUSH1 0x40 MLOAD PUSH32 0x8C379A000000000000000000000000000000000000000000000000000000000 DUP2 MSTORE PUSH1 0x4 ADD PUSH2 0x2B2 SWAP1 PUSH2 0x6C5 JUMP JUMPDEST PUSH1 0x40 MLOAD DUP1 SWAP2 SUB SWAP1 REVERT JUMPDEST PUSH1 0x0 DUP1 PUSH32 0x0 PUSH20 0xFFFFFFFFFFFFFFFFFFFFFFFFFFFFFFFFFFFFFFFF AND CALLVALUE PUSH1 0x0 CALLDATASIZE PUSH1 0x40 MLOAD PUSH2 0x307 SWAP3 SWAP2 SWAP1 PUSH2 0x850 JUMP JUMPDEST PUSH1 0x0 PUSH1 0x40 MLOAD DUP1 DUP4 SUB DUP2 DUP6 DUP8 GAS CALL SWAP3 POP POP POP RETURNDATASIZE DUP1 PUSH1 0x0 DUP2 EQ PUSH2 0x344 JUMPI PUSH1 0x40 MLOAD SWAP2 POP PUSH1 0x1F NOT PUSH1 0x3F RETURNDATASIZE ADD AND DUP3 ADD PUSH1 0x40 MSTORE RETURNDATASIZE DUP3 MSTORE RETURNDATASIZE PUSH1 0x0 PUSH1 0x20 DUP5 ADD RETURNDATACOPY PUSH2 0x349 JUMP JUMPDEST PUSH1 0x60 SWAP2 POP JUMPDEST POP SWAP2 POP SWAP2 POP DUP2 PUSH2 0x35B JUMPI DUP1 MLOAD PUSH1 0x20 DUP3 ADD REVERT JUMPDEST DUP1 MLOAD PUSH1 0x20 DUP3 ADD RETURN JUMPDEST CALLVALUE DUP1 ISZERO PUSH2 0x36F JUMPI PUSH1 0x0 DUP1 REVERT JUMPDEST POP PUSH2 0x378 PUSH2 0x40D JUMP JUMPDEST PUSH1 0x40 MLOAD PUSH2 0x385 SWAP2 SWAP1 PUSH2 0x884 JUMP JUMPDEST PUSH1 0x40 MLOAD DUP1 SWAP2 SUB SWAP1 RETURN JUMPDEST CALLVALUE DUP1 ISZERO PUSH2 0x39A JUMPI PUSH1 0x0 DUP1 REVERT JUMPDEST POP PUSH2 0x3B5 PUSH1 0x4 DUP1 CALLDATASIZE SUB DUP2 ADD SWAP1 PUSH2 0x3B0 SWAP2 SWAP1 PUSH2 0x902 JUMP JUMPDEST PUSH2 0x420 JUMP JUMPDEST STOP JUMPDEST CALLVALUE DUP1 ISZERO PUSH2 0x3C3 JUMPI PUSH1 0x0 DUP1 REVERT JUMPDEST POP PUSH2 0x3CC PUSH2 0x5A3 JUMP JUMPDEST PUSH1 0x40 MLOAD PUSH2 0x3D9 SWAP2 SWAP1 PUSH2 0x93E JUMP JUMPDEST PUSH1 0x40 MLOAD DUP1 SWAP2 SUB SWAP1 RETURN JUMPDEST CALLVALUE DUP1 ISZERO PUSH2 0x3EE JUMPI PUSH1 0x0 DUP1 REVERT JUMPDEST POP PUSH2 0x3F7 PUSH2 0x5C7 JUMP JUMPDEST PUSH1 0x40 MLOAD PUSH2 0x404 SWAP2 SWAP1 PUSH2 0x93E JUMP JUMPDEST PUSH1 0x40 MLOAD DUP1 SWAP2 SUB SWAP1 RETURN JUMPDEST PUSH1 0x0 PUSH1 0x14 SWAP1 SLOAD SWAP1 PUSH2 0x100 EXP SWAP1 DIV PUSH1 0xFF AND DUP2 JUMP JUMPDEST PUSH1 0x0 DUP1 SLOAD SWAP1 PUSH2 0x100 EXP SWAP1 DIV PUSH20 0xFFFFFFFFFFFFFFFFFFFFFFFFFFFFFFFFFFFFFFFF AND PUSH20 0xFFFFFFFFFFFFFFFFFFFFFFFFFFFFFFFFFFFFFFFF AND CALLER PUSH20 0xFFFFFFFFFFFFFFFFFFFFFFFFFFFFFFFFFFFFFFFF AND EQ PUSH2 0x4AE JUMPI PUSH1 0x40 MLOAD PUSH32 0x8C379A000000000000000000000000000000000000000000000000000000000 DUP2 MSTORE PUSH1 0x4 ADD PUSH2 0x4A5 SWAP1 PUSH2 0x9CB JUMP JUMPDEST PUSH1 0x40 MLOAD DUP1 SWAP2 SUB SWAP1 REVERT JUMPDEST PUSH1 0x0 PUSH20 0xFFFFFFFFFFFFFFFFFFFFFFFFFFFFFFFFFFFFFFFF AND DUP2 PUSH20 0xFFFFFFFFFFFFFFFFFFFFFFFFFFFFFFFFFFFFFFFF AND SUB PUSH2 0x51D JUMPI PUSH1 0x40 MLOAD PUSH32 0x8C379A000000000000000000000000000000000000000000000000000000000 DUP2 MSTORE PUSH1 0x4 ADD PUSH2 0x514 SWAP1 PUSH2 0xA5D JUMP JUMPDEST PUSH1 0x40 MLOAD DUP1 SWAP2 SUB SWAP1 REVERT JUMPDEST DUP1 PUSH1 0x0 DUP1 PUSH2 0x100 EXP DUP2 SLOAD DUP2 PUSH20 0xFFFFFFFFFFFFFFFFFFFFFFFFFFFFFFFFFFFFFFFF MUL NOT AND SWAP1 DUP4 PUSH20 0xFFFFFFFFFFFFFFFFFFFFFFFFFFFFFFFFFFFFFFFF AND MUL OR SWAP1 SSTORE POP DUP1 PUSH20 0xFFFFFFFFFFFFFFFFFFFFFFFFFFFFFFFFFFFFFFFF AND PUSH32 0x7CE7EC0B50378FB6C0186FFB5F48325F6593FCB4CA4386F21861AF3129188F5C PUSH1 0x40 MLOAD PUSH1 0x40 MLOAD DUP1 SWAP2 SUB SWAP1 LOG2 POP JUMP JUMPDEST PUSH32 0x0 DUP2 JUMP JUMPDEST PUSH1 0x0 DUP1 SLOAD SWAP1 PUSH2 0x100 EXP SWAP1 DIV PUSH20 0xFFFFFFFFFFFFFFFFFFFFFFFFFFFFFFFFFFFFFFFF AND DUP2 JUMP JUMPDEST PUSH1 0x0 DUP3 DUP3 MSTORE PUSH1 0x20 DUP3 ADD SWAP1 POP SWAP3 SWAP2 POP POP JUMP JUMPDEST POP JUMP JUMPDEST PUSH1 0x0 PUSH2 0x60C PUSH1 0x0 DUP4 PUSH2 0x5EB JUMP JUMPDEST SWAP2 POP PUSH2 0x617 DUP3 PUSH2 0x5FC JUMP JUMPDEST PUSH1 0x0 DUP3 ADD SWAP1 POP SWAP2 SWAP1 POP JUMP JUMPDEST PUSH1 0x0 PUSH1 0x20 DUP3 ADD SWAP1 POP DUP2 DUP2 SUB PUSH1 0x0 DUP4 ADD MSTORE PUSH2 0x63B DUP2 PUSH2 0x5FF JUMP JUMPDEST SWAP1 POP SWAP2 SWAP1 POP JUMP JUMPDEST PUSH1 0x0 DUP3 DUP3 MSTORE PUSH1 0x20 DUP3 ADD SWAP1 POP SWAP3 SWAP2 POP POP JUMP JUMPDEST PUSH32 0x536563757269747950726F78793A20636F6E74726163742069732066726F7A65 PUSH1 0x0 DUP3 ADD MSTORE PUSH32 0x6E2064756520746F207365637572697479207269736B00000000000000000000 PUSH1 0x20 DUP3 ADD MSTORE POP JUMP JUMPDEST PUSH1 0x0 PUSH2 0x6AF PUSH1 0x36 DUP4 PUSH2 0x642 JUMP JUMPDEST SWAP2 POP PUSH2 0x6BA DUP3 PUSH2 0x653 JUMP JUMPDEST PUSH1 0x40 DUP3 ADD SWAP1 POP SWAP2 SWAP1 POP JUMP JUMPDEST PUSH1 0x0 PUSH1 0x20 DUP3 ADD SWAP1 POP DUP2 DUP2 SUB PUSH1 0x0 DUP4 ADD MSTORE PUSH2 0x6DE DUP2 PUSH2 0x6A2 JUMP JUMPDEST SWAP1 POP SWAP2 SWAP1 POP JUMP JUMPDEST PUSH1 0x0 DUP2 SWAP1 POP SWAP3 SWAP2 POP POP JUMP JUMPDEST PUSH1 0x0 PUSH2 0x6FD PUSH1 0x0 DUP4 PUSH2 0x6E5 JUMP JUMPDEST SWAP2 POP PUSH2 0x708 DUP3 PUSH2 0x5FC JUMP JUMPDEST PUSH1 0x0 DUP3 ADD SWAP1 POP SWAP2 SWAP1 POP JUMP JUMPDEST PUSH1 0x0 PUSH2 0x71E DUP3 PUSH2 0x6F0 JUMP JUMPDEST SWAP2 POP DUP2 SWAP1 POP SWAP2 SWAP1 POP JUMP JUMPDEST PUSH32 0x536563757269747950726F78793A20455448207472616E73666572206661696C PUSH1 0x0 DUP3 ADD MSTORE PUSH32 0x6564000000000000000000000000000000000000000000000000000000000000 PUSH1 0x20 DUP3 ADD MSTORE POP JUMP JUMPDEST PUSH1 0x0 PUSH2 0x784 PUSH1 0x22 DUP4 PUSH2 0x642 JUMP JUMPDEST SWAP2 POP PUSH2 0x78F DUP3 PUSH2 0x728 JUMP JUMPDEST PUSH1 0x40 DUP3 ADD SWAP1 POP SWAP2 SWAP1 POP JUMP JUMPDEST PUSH1 0x0 PUSH1 0x20 DUP3 ADD SWAP1 POP DUP2 DUP2 SUB PUSH1 0x0 DUP4 ADD MSTORE PUSH2 0x7B3 DUP2 PUSH2 0x777 JUMP JUMPDEST SWAP1 POP SWAP2 SWAP1 POP JUMP JUMPDEST DUP3 DUP2 DUP4 CALLDATACOPY PUSH1 0x0 DUP4 DUP4 ADD MSTORE POP POP POP JUMP JUMPDEST PUSH1 0x0 PUSH1 0x1F NOT PUSH1 0x1F DUP4 ADD AND SWAP1 POP SWAP2 SWAP1 POP JUMP JUMPDEST PUSH1 0x0 PUSH2 0x7E6 DUP4 DUP6 PUSH2 0x5EB JUMP JUMPDEST SWAP4 POP PUSH2 0x7F3 DUP4 DUP6 DUP5 PUSH2 0x7BA JUMP JUMPDEST PUSH2 0x7FC DUP4 PUSH2 0x7C9 JUMP JUMPDEST DUP5 ADD SWAP1 POP SWAP4 SWAP3 POP POP POP JUMP JUMPDEST PUSH1 0x0 PUSH1 0x20 DUP3 ADD SWAP1 POP DUP2 DUP2 SUB PUSH1 0x0 DUP4 ADD MSTORE PUSH2 0x822 DUP2 DUP5 DUP7 PUSH2 0x7DA JUMP JUMPDEST SWAP1 POP SWAP4 SWAP3 POP POP POP JUMP JUMPDEST PUSH1 0x0 PUSH2 0x837 DUP4 DUP6 PUSH2 0x6E5 JUMP JUMPDEST SWAP4 POP PUSH2 0x844 DUP4 DUP6 DUP5 PUSH2 0x7BA JUMP JUMPDEST DUP3 DUP5 ADD SWAP1 POP SWAP4 SWAP3 POP POP POP JUMP JUMPDEST PUSH1 0x0 PUSH2 0x85D DUP3 DUP5 DUP7 PUSH2 0x82B JUMP JUMPDEST SWAP2 POP DUP2 SWAP1 POP SWAP4 SWAP3 POP POP POP JUMP JUMPDEST PUSH1 0x0 DUP2 ISZERO ISZERO SWAP1 POP SWAP2 SWAP1 POP JUMP JUMPDEST PUSH2 0x87E DUP2 PUSH2 0x869 JUMP JUMPDEST DUP3 MSTORE POP POP JUMP JUMPDEST PUSH1 0x0 PUSH1 0x20 DUP3 ADD SWAP1 POP PUSH2 0x899 PUSH1 0x0 DUP4 ADD DUP5 PUSH2 0x875 JUMP JUMPDEST SWAP3 SWAP2 POP POP JUMP JUMPDEST PUSH1 0x0 DUP1 REVERT JUMPDEST PUSH1 0x0 PUSH20 0xFFFFFFFFFFFFFFFFFFFFFFFFFFFFFFFFFFFFFFFF DUP3 AND SWAP1 POP SWAP2 SWAP1 POP JUMP JUMPDEST PUSH1 0x0 PUSH2 0x8CF DUP3 PUSH2 0x8A4 JUMP JUMPDEST SWAP1 POP SWAP2 SWAP1 POP JUMP JUMPDEST PUSH2 0x8DF DUP2 PUSH2 0x8C4 JUMP JUMPDEST DUP2 EQ PUSH2 0x8EA JUMPI PUSH1 0x0 DUP1 REVERT JUMPDEST POP JUMP JUMPDEST PUSH1 0x0 DUP2 CALLDATALOAD SWAP1 POP PUSH2 0x8FC DUP2 PUSH2 0x8D6 JUMP JUMPDEST SWAP3 SWAP2 POP POP JUMP JUMPDEST PUSH1 0x0 PUSH1 0x20 DUP3 DUP5 SUB SLT ISZERO PUSH2 0x918 JUMPI PUSH2 0x917 PUSH2 0x89F JUMP JUMPDEST JUMPDEST PUSH1 0x0 PUSH2 0x926 DUP5 DUP3 DUP6 ADD PUSH2 0x8ED JUMP JUMPDEST SWAP2 POP POP SWAP3 SWAP2 POP POP JUMP JUMPDEST PUSH2 0x938 DUP2 PUSH2 0x8C4 JUMP JUMPDEST DUP3 MSTORE POP POP JUMP JUMPDEST PUSH1 0x0 PUSH1 0x20 DUP3 ADD SWAP1 POP PUSH2 0x953 PUSH1 0x0 DUP4 ADD DUP5 PUSH2 0x92F JUMP JUMPDEST SWAP3 SWAP2 POP POP JUMP JUMPDEST PUSH32 0x536563757269747950726F78793A2063616C6C6572206973206E6F7420746865 PUSH1 0x0 DUP3 ADD MSTORE PUSH32 0x2061646D696E0000000000000000000000000000000000000000000000000000 PUSH1 0x20 DUP3 ADD MSTORE POP JUMP JUMPDEST PUSH1 0x0 PUSH2 0x9B5 PUSH1 0x26 DUP4 PUSH2 0x642 JUMP JUMPDEST SWAP2 POP PUSH2 0x9C0 DUP3 PUSH2 0x959 JUMP JUMPDEST PUSH1 0x40 DUP3 ADD SWAP1 POP SWAP2 SWAP1 POP JUMP JUMPDEST PUSH1 0x0 PUSH1 0x20 DUP3 ADD SWAP1 POP DUP2 DUP2 SUB PUSH1 0x0 DUP4 ADD MSTORE PUSH2 0x9E4 DUP2 PUSH2 0x9A8 JUMP JUMPDEST SWAP1 POP SWAP2 SWAP1 POP JUMP JUMPDEST PUSH32 0x536563757269747950726F78793A20696E76616C69642061646D696E20616464 PUSH1 0x0 DUP3 ADD MSTORE PUSH32 0x7265737300000000000000000000000000000000000000000000000000000000 PUSH1 0x20 DUP3 ADD MSTORE POP JUMP JUMPDEST PUSH1 0x0 PUSH2 0xA47 PUSH1 0x24 DUP4 PUSH2 0x642 JUMP JUMPDEST SWAP2 POP PUSH2 0xA52 DUP3 PUSH2 0x9EB JUMP JUMPDEST PUSH1 0x40 DUP3 ADD SWAP1 POP SWAP2 SWAP1 POP JUMP JUMPDEST PUSH1 0x0 PUSH1 0x20 DUP3 ADD SWAP1 POP DUP2 DUP2 SUB PUSH1 0x0 DUP4 ADD MSTORE PUSH2 0xA76 DUP2 PUSH2 0xA3A JUMP JUMPDEST SWAP1 POP SWAP2 SWAP1 POP JUMP INVALID LOG2 PUSH5 0x6970667358 0x22 SLT KECCAK256 0x1F 0xD9 0xE7 PUSH0 NOT 0xCA JUMP 0xC4 CALL 0xEC SUB DUP8 0xD5 OR MCOPY MULMOD SWAP15 0xD9 0x1E OR JUMPDEST POP CHAINID SWAP12 PUSH1 0xD9 BLOBHASH 0xEE 0xAE PC 0x2E MSIZE PUSH5 0x736F6C6343 STOP ADDMOD SHR STOP CALLER "},"methodIdentifiers":{"admin()":"f851a440","changeAdmin(address)":"8f283970","frozen()":"054f7d9c","targetContract()":"bd90df70"}}}}}