{"contracts/votingContract.sol":{"Voting":{"abi":[{"inputs":[{"internalType":"string[]","name":"candidates","type":"string[]"}],"stateMutability":"nonpayable","type":"constructor"},{"inputs":[{"internalType":"uint256","name":"","type":"uint256"}],"name":"candidateList","outputs":[{"internalType":"string","name":"","type":"string"}],"stateMutability":"view","type":"function"},{"inputs":[{"internalType":"string","name":"candidate","type":"string"}],"name":"totalVotesFor","outputs":[{"internalType":"uint256","name":"","type":"uint256"}],"stateMutability":"view","type":"function"},{"inputs":[{"internalType":"string","name":"candidate","type":"string"}],"name":"vote","outputs":[],"stateMutability":"nonpayable","type":"function"},{"inputs":[{"internalType":"string","name":"","type":"string"}],"name":"votesReceived","outputs":[{"internalType":"uint256","name":"","type":"uint256"}],"stateMutability":"view","type":"function"}],"evm":{"bytecode":{"linkReferences":{},"object":"608060405234801561001057600080fd5b50604051610f80380380610f8083398181016040528101906100329190610384565b806001908051906020019061004892919061004f565b50506106c0565b828054828255906000526020600020908101928215610097579160200282015b8281111561009657825182908161008691906105ee565b509160200191906001019061006f565b5b5090506100a491906100a8565b5090565b5b808211156100c857600081816100bf91906100cc565b506001016100a9565b5090565b5080546100d890610407565b6000825580601f106100ea5750610109565b601f016020900490600052602060002090810190610108919061010c565b5b50565b5b8082111561012557600081600090555060010161010d565b5090565b6000604051905090565b600080fd5b600080fd5b600080fd5b6000601f19601f8301169050919050565b7f4e487b7100000000000000000000000000000000000000000000000000000000600052604160045260246000fd5b61018b82610142565b810181811067ffffffffffffffff821117156101aa576101a9610153565b5b80604052505050565b60006101bd610129565b90506101c98282610182565b919050565b600067ffffffffffffffff8211156101e9576101e8610153565b5b602082029050602081019050919050565b600080fd5b600080fd5b600067ffffffffffffffff82111561021f5761021e610153565b5b61022882610142565b9050602081019050919050565b60005b83811015610253578082015181840152602081019050610238565b60008484015250505050565b600061027261026d84610204565b6101b3565b90508281526020810184848401111561028e5761028d6101ff565b5b610299848285610235565b509392505050565b600082601f8301126102b6576102b561013d565b5b81516102c684826020860161025f565b91505092915050565b60006102e26102dd846101ce565b6101b3565b90508083825260208201905060208402830185811115610305576103046101fa565b5b835b8181101561034c57805167ffffffffffffffff81111561032a5761032961013d565b5b80860161033789826102a1565b85526020850194505050602081019050610307565b5050509392505050565b600082601f83011261036b5761036a61013d565b5b815161037b8482602086016102cf565b91505092915050565b60006020828403121561039a57610399610133565b5b600082015167ffffffffffffffff8111156103b8576103b7610138565b5b6103c484828501610356565b91505092915050565b600081519050919050565b7f4e487b7100000000000000000000000000000000000000000000000000000000600052602260045260246000fd5b6000600282049050600182168061041f57607f821691505b602082108103610432576104316103d8565b5b50919050565b60008190508160005260206000209050919050565b60006020601f8301049050919050565b600082821b905092915050565b60006008830261049a7fffffffffffffffffffffffffffffffffffffffffffffffffffffffffffffffff8261045d565b6104a4868361045d565b95508019841693508086168417925050509392505050565b6000819050919050565b6000819050919050565b60006104eb6104e66104e1846104bc565b6104c6565b6104bc565b9050919050565b6000819050919050565b610505836104d0565b610519610511826104f2565b84845461046a565b825550505050565b600090565b61052e610521565b6105398184846104fc565b505050565b5b8181101561055d57610552600082610526565b60018101905061053f565b5050565b601f8211156105a25761057381610438565b61057c8461044d565b8101602085101561058b578190505b61059f6105978561044d565b83018261053e565b50505b505050565b600082821c905092915050565b60006105c5600019846008026105a7565b1980831691505092915050565b60006105de83836105b4565b9150826002028217905092915050565b6105f7826103cd565b67ffffffffffffffff8111156106105761060f610153565b5b61061a8254610407565b610625828285610561565b600060209050601f8311600181146106585760008415610646578287015190505b61065085826105d2565b8655506106b8565b601f19841661066686610438565b60005b8281101561068e57848901518255600182019150602085019450602081019050610669565b868310156106ab57848901516106a7601f8916826105b4565b8355505b6001600288020188555050505b505050505050565b6108b1806106cf6000396000f3fe608060405234801561001057600080fd5b506004361061004c5760003560e01c80634a3bf377146100515780638d4b44d914610081578063b13c744b146100b1578063fc36e15b146100e1575b600080fd5b61006b60048036038101906100669190610499565b6100fd565b60405161007891906104fb565b60405180910390f35b61009b60048036038101906100969190610499565b61016d565b6040516100a891906104fb565b60405180910390f35b6100cb60048036038101906100c69190610542565b61019b565b6040516100d891906105ee565b60405180910390f35b6100fb60048036038101906100f69190610499565b610247565b005b6000610108826102c8565b610147576040517f08c379a000000000000000000000000000000000000000000000000000000000815260040161013e9061065c565b60405180910390fd5b60008260405161015791906106b8565b9081526020016040518091039020549050919050565b6000818051602081018201805184825260208301602085012081835280955050505050506000915090505481565b600181815481106101ab57600080fd5b9060005260206000200160009150905080546101c6906106fe565b80601f01602080910402602001604051908101604052809291908181526020018280546101f2906106fe565b801561023f5780601f106102145761010080835404028352916020019161023f565b820191906000526020600020905b81548152906001019060200180831161022257829003601f168201915b505050505081565b610250816102c8565b61028f576040517f08c379a00000000000000000000000000000000000000000000000000000000081526004016102869061065c565b60405180910390fd5b60016000826040516102a191906106b8565b908152602001604051809103902060008282546102be919061075e565b9250508190555050565b600080600090505b600180549050811015610334578280519060200120600182815481106102f9576102f8610792565b5b906000526020600020016040516103109190610864565b60405180910390200361032757600191505061033a565b80806001019150506102d0565b50600090505b919050565b6000604051905090565b600080fd5b600080fd5b600080fd5b600080fd5b6000601f19601f8301169050919050565b7f4e487b7100000000000000000000000000000000000000000000000000000000600052604160045260246000fd5b6103a68261035d565b810181811067ffffffffffffffff821117156103c5576103c461036e565b5b80604052505050565b60006103d861033f565b90506103e4828261039d565b919050565b600067ffffffffffffffff8211156104045761040361036e565b5b61040d8261035d565b9050602081019050919050565b82818337600083830152505050565b600061043c610437846103e9565b6103ce565b90508281526020810184848401111561045857610457610358565b5b61046384828561041a565b509392505050565b600082601f8301126104805761047f610353565b5b8135610490848260208601610429565b91505092915050565b6000602082840312156104af576104ae610349565b5b600082013567ffffffffffffffff8111156104cd576104cc61034e565b5b6104d98482850161046b565b91505092915050565b6000819050919050565b6104f5816104e2565b82525050565b600060208201905061051060008301846104ec565b92915050565b61051f816104e2565b811461052a57600080fd5b50565b60008135905061053c81610516565b92915050565b60006020828403121561055857610557610349565b5b60006105668482850161052d565b91505092915050565b600081519050919050565b600082825260208201905092915050565b60005b838110156105a957808201518184015260208101905061058e565b60008484015250505050565b60006105c08261056f565b6105ca818561057a565b93506105da81856020860161058b565b6105e38161035d565b840191505092915050565b6000602082019050818103600083015261060881846105b5565b905092915050565b7f4e6f7420612076616c69642063616e6469646174650000000000000000000000600082015250565b600061064660158361057a565b915061065182610610565b602082019050919050565b6000602082019050818103600083015261067581610639565b9050919050565b600081905092915050565b60006106928261056f565b61069c818561067c565b93506106ac81856020860161058b565b80840191505092915050565b60006106c48284610687565b915081905092915050565b7f4e487b7100000000000000000000000000000000000000000000000000000000600052602260045260246000fd5b6000600282049050600182168061071657607f821691505b602082108103610729576107286106cf565b5b50919050565b7f4e487b7100000000000000000000000000000000000000000000000000000000600052601160045260246000fd5b6000610769826104e2565b9150610774836104e2565b925082820190508082111561078c5761078b61072f565b5b92915050565b7f4e487b7100000000000000000000000000000000000000000000000000000000600052603260045260246000fd5b600081905092915050565b60008190508160005260206000209050919050565b600081546107ee816106fe565b6107f881866107c1565b9450600182166000811461081357600181146108285761085b565b60ff198316865281151582028601935061085b565b610831856107cc565b60005b8381101561085357815481890152600182019150602081019050610834565b838801955050505b50505092915050565b600061087082846107e1565b91508190509291505056fea2646970667358221220c8b77c4f9522d36117ba6314ae55ce1a97c06605baf36e260f7990b68e14c50164736f6c634300081c0033","opcodes":"PUSH1 0x80 PUSH1 0x40 MSTORE CALLVALUE DUP1 ISZERO PUSH2 0x10 JUMPI PUSH1 0x0 DUP1 REVERT JUMPDEST POP PUSH1 0x40 MLOAD PUSH2 0xF80 CODESIZE SUB DUP1 PUSH2 0xF80 DUP4 CODECOPY DUP2 DUP2 ADD PUSH1 0x40 MSTORE DUP2 ADD SWAP1 PUSH2 0x32 SWAP2 SWAP1 PUSH2 0x384 JUMP JUMPDEST DUP1 PUSH1 0x1 SWAP1 DUP1 MLOAD SWAP1 PUSH1 0x20 ADD SWAP1 PUSH2 0x48 SWAP3 SWAP2 SWAP1 PUSH2 0x4F JUMP JUMPDEST POP POP PUSH2 0x6C0 JUMP JUMPDEST DUP3 DUP1 SLOAD DUP3 DUP3 SSTORE SWAP1 PUSH1 0x0 MSTORE PUSH1 0x20 PUSH1 0x0 KECCAK256 SWAP1 DUP2 ADD SWAP3 DUP3 ISZERO PUSH2 0x97 JUMPI SWAP2 PUSH1 0x20 MUL DUP3 ADD JUMPDEST DUP3 DUP2 GT ISZERO PUSH2 0x96 JUMPI DUP3 MLOAD DUP3 SWAP1 DUP2 PUSH2 0x86 SWAP2 SWAP1 PUSH2 0x5EE JUMP JUMPDEST POP SWAP2 PUSH1 0x20 ADD SWAP2 SWAP1 PUSH1 0x1 ADD SWAP1 PUSH2 0x6F JUMP JUMPDEST JUMPDEST POP SWAP1 POP PUSH2 0xA4 SWAP2 SWAP1 PUSH2 0xA8 JUMP JUMPDEST POP SWAP1 JUMP JUMPDEST JUMPDEST DUP1 DUP3 GT ISZERO PUSH2 0xC8 JUMPI PUSH1 0x0 DUP2 DUP2 PUSH2 0xBF SWAP2 SWAP1 PUSH2 0xCC JUMP JUMPDEST POP PUSH1 0x1 ADD PUSH2 0xA9 JUMP JUMPDEST POP SWAP1 JUMP JUMPDEST POP DUP1 SLOAD PUSH2 0xD8 SWAP1 PUSH2 0x407 JUMP JUMPDEST PUSH1 0x0 DUP3 SSTORE DUP1 PUSH1 0x1F LT PUSH2 0xEA JUMPI POP PUSH2 0x109 JUMP JUMPDEST PUSH1 0x1F ADD PUSH1 0x20 SWAP1 DIV SWAP1 PUSH1 0x0 MSTORE PUSH1 0x20 PUSH1 0x0 KECCAK256 SWAP1 DUP2 ADD SWAP1 PUSH2 0x108 SWAP2 SWAP1 PUSH2 0x10C JUMP JUMPDEST JUMPDEST POP JUMP JUMPDEST JUMPDEST DUP1 DUP3 GT ISZERO PUSH2 0x125 JUMPI PUSH1 0x0 DUP2 PUSH1 0x0 SWAP1 SSTORE POP PUSH1 0x1 ADD PUSH2 0x10D JUMP JUMPDEST POP SWAP1 JUMP JUMPDEST PUSH1 0x0 PUSH1 0x40 MLOAD SWAP1 POP SWAP1 JUMP JUMPDEST PUSH1 0x0 DUP1 REVERT JUMPDEST PUSH1 0x0 DUP1 REVERT JUMPDEST PUSH1 0x0 DUP1 REVERT JUMPDEST PUSH1 0x0 PUSH1 0x1F NOT PUSH1 0x1F DUP4 ADD AND SWAP1 POP SWAP2 SWAP1 POP JUMP JUMPDEST PUSH32 0x4E487B7100000000000000000000000000000000000000000000000000000000 PUSH1 0x0 MSTORE PUSH1 0x41 PUSH1 0x4 MSTORE PUSH1 0x24 PUSH1 0x0 REVERT JUMPDEST PUSH2 0x18B DUP3 PUSH2 0x142 JUMP JUMPDEST DUP2 ADD DUP2 DUP2 LT PUSH8 0xFFFFFFFFFFFFFFFF DUP3 GT OR ISZERO PUSH2 0x1AA JUMPI PUSH2 0x1A9 PUSH2 0x153 JUMP JUMPDEST JUMPDEST DUP1 PUSH1 0x40 MSTORE POP POP POP JUMP JUMPDEST PUSH1 0x0 PUSH2 0x1BD PUSH2 0x129 JUMP JUMPDEST SWAP1 POP PUSH2 0x1C9 DUP3 DUP3 PUSH2 0x182 JUMP JUMPDEST SWAP2 SWAP1 POP JUMP JUMPDEST PUSH1 0x0 PUSH8 0xFFFFFFFFFFFFFFFF DUP3 GT ISZERO PUSH2 0x1E9 JUMPI PUSH2 0x1E8 PUSH2 0x153 JUMP JUMPDEST JUMPDEST PUSH1 0x20 DUP3 MUL SWAP1 POP PUSH1 0x20 DUP2 ADD SWAP1 POP SWAP2 SWAP1 POP JUMP JUMPDEST PUSH1 0x0 DUP1 REVERT JUMPDEST PUSH1 0x0 DUP1 REVERT JUMPDEST PUSH1 0x0 PUSH8 0xFFFFFFFFFFFFFFFF DUP3 GT ISZERO PUSH2 0x21F JUMPI PUSH2 0x21E PUSH2 0x153 JUMP JUMPDEST JUMPDEST PUSH2 0x228 DUP3 PUSH2 0x142 JUMP JUMPDEST SWAP1 POP PUSH1 0x20 DUP2 ADD SWAP1 POP SWAP2 SWAP1 POP JUMP JUMPDEST PUSH1 0x0 JUMPDEST DUP4 DUP2 LT ISZERO PUSH2 0x253 JUMPI DUP1 DUP3 ADD MLOAD DUP2 DUP5 ADD MSTORE PUSH1 0x20 DUP2 ADD SWAP1 POP PUSH2 0x238 JUMP JUMPDEST PUSH1 0x0 DUP5 DUP5 ADD MSTORE POP POP POP POP JUMP JUMPDEST PUSH1 0x0 PUSH2 0x272 PUSH2 0x26D DUP5 PUSH2 0x204 JUMP JUMPDEST PUSH2 0x1B3 JUMP JUMPDEST SWAP1 POP DUP3 DUP2 MSTORE PUSH1 0x20 DUP2 ADD DUP5 DUP5 DUP5 ADD GT ISZERO PUSH2 0x28E JUMPI PUSH2 0x28D PUSH2 0x1FF JUMP JUMPDEST JUMPDEST PUSH2 0x299 DUP5 DUP3 DUP6 PUSH2 0x235 JUMP JUMPDEST POP SWAP4 SWAP3 POP POP POP JUMP JUMPDEST PUSH1 0x0 DUP3 PUSH1 0x1F DUP4 ADD SLT PUSH2 0x2B6 JUMPI PUSH2 0x2B5 PUSH2 0x13D JUMP JUMPDEST JUMPDEST DUP2 MLOAD PUSH2 0x2C6 DUP5 DUP3 PUSH1 0x20 DUP7 ADD PUSH2 0x25F JUMP JUMPDEST SWAP2 POP POP SWAP3 SWAP2 POP POP JUMP JUMPDEST PUSH1 0x0 PUSH2 0x2E2 PUSH2 0x2DD DUP5 PUSH2 0x1CE JUMP JUMPDEST PUSH2 0x1B3 JUMP JUMPDEST SWAP1 POP DUP1 DUP4 DUP3 MSTORE PUSH1 0x20 DUP3 ADD SWAP1 POP PUSH1 0x20 DUP5 MUL DUP4 ADD DUP6 DUP2 GT ISZERO PUSH2 0x305 JUMPI PUSH2 0x304 PUSH2 0x1FA JUMP JUMPDEST JUMPDEST DUP4 JUMPDEST DUP2 DUP2 LT ISZERO PUSH2 0x34C JUMPI DUP1 MLOAD PUSH8 0xFFFFFFFFFFFFFFFF DUP2 GT ISZERO PUSH2 0x32A JUMPI PUSH2 0x329 PUSH2 0x13D JUMP JUMPDEST JUMPDEST DUP1 DUP7 ADD PUSH2 0x337 DUP10 DUP3 PUSH2 0x2A1 JUMP JUMPDEST DUP6 MSTORE PUSH1 0x20 DUP6 ADD SWAP5 POP POP POP PUSH1 0x20 DUP2 ADD SWAP1 POP PUSH2 0x307 JUMP JUMPDEST POP POP POP SWAP4 SWAP3 POP POP POP JUMP JUMPDEST PUSH1 0x0 DUP3 PUSH1 0x1F DUP4 ADD SLT PUSH2 0x36B JUMPI PUSH2 0x36A PUSH2 0x13D JUMP JUMPDEST JUMPDEST DUP2 MLOAD PUSH2 0x37B DUP5 DUP3 PUSH1 0x20 DUP7 ADD PUSH2 0x2CF JUMP JUMPDEST SWAP2 POP POP SWAP3 SWAP2 POP POP JUMP JUMPDEST PUSH1 0x0 PUSH1 0x20 DUP3 DUP5 SUB SLT ISZERO PUSH2 0x39A JUMPI PUSH2 0x399 PUSH2 0x133 JUMP JUMPDEST JUMPDEST PUSH1 0x0 DUP3 ADD MLOAD PUSH8 0xFFFFFFFFFFFFFFFF DUP2 GT ISZERO PUSH2 0x3B8 JUMPI PUSH2 0x3B7 PUSH2 0x138 JUMP JUMPDEST JUMPDEST PUSH2 0x3C4 DUP5 DUP3 DUP6 ADD PUSH2 0x356 JUMP JUMPDEST SWAP2 POP POP SWAP3 SWAP2 POP POP JUMP JUMPDEST PUSH1 0x0 DUP2 MLOAD SWAP1 POP SWAP2 SWAP1 POP JUMP JUMPDEST PUSH32 0x4E487B7100000000000000000000000000000000000000000000000000000000 PUSH1 0x0 MSTORE PUSH1 0x22 PUSH1 0x4 MSTORE PUSH1 0x24 PUSH1 0x0 REVERT JUMPDEST PUSH1 0x0 PUSH1 0x2 DUP3 DIV SWAP1 POP PUSH1 0x1 DUP3 AND DUP1 PUSH2 0x41F JUMPI PUSH1 0x7F DUP3 AND SWAP2 POP JUMPDEST PUSH1 0x20 DUP3 LT DUP2 SUB PUSH2 0x432 JUMPI PUSH2 0x431 PUSH2 0x3D8 JUMP JUMPDEST JUMPDEST POP SWAP2 SWAP1 POP JUMP JUMPDEST PUSH1 0x0 DUP2 SWAP1 POP DUP2 PUSH1 0x0 MSTORE PUSH1 0x20 PUSH1 0x0 KECCAK256 SWAP1 POP SWAP2 SWAP1 POP JUMP JUMPDEST PUSH1 0x0 PUSH1 0x20 PUSH1 0x1F DUP4 ADD DIV SWAP1 POP SWAP2 SWAP1 POP JUMP JUMPDEST PUSH1 0x0 DUP3 DUP3 SHL SWAP1 POP SWAP3 SWAP2 POP POP JUMP JUMPDEST PUSH1 0x0 PUSH1 0x8 DUP4 MUL PUSH2 0x49A PUSH32 0xFFFFFFFFFFFFFFFFFFFFFFFFFFFFFFFFFFFFFFFFFFFFFFFFFFFFFFFFFFFFFFFF DUP3 PUSH2 0x45D JUMP JUMPDEST PUSH2 0x4A4 DUP7 DUP4 PUSH2 0x45D JUMP JUMPDEST SWAP6 POP DUP1 NOT DUP5 AND SWAP4 POP DUP1 DUP7 AND DUP5 OR SWAP3 POP POP POP SWAP4 SWAP3 POP POP POP JUMP JUMPDEST PUSH1 0x0 DUP2 SWAP1 POP SWAP2 SWAP1 POP JUMP JUMPDEST PUSH1 0x0 DUP2 SWAP1 POP SWAP2 SWAP1 POP JUMP JUMPDEST PUSH1 0x0 PUSH2 0x4EB PUSH2 0x4E6 PUSH2 0x4E1 DUP5 PUSH2 0x4BC JUMP JUMPDEST PUSH2 0x4C6 JUMP JUMPDEST PUSH2 0x4BC JUMP JUMPDEST SWAP1 POP SWAP2 SWAP1 POP JUMP JUMPDEST PUSH1 0x0 DUP2 SWAP1 POP SWAP2 SWAP1 POP JUMP JUMPDEST PUSH2 0x505 DUP4 PUSH2 0x4D0 JUMP JUMPDEST PUSH2 0x519 PUSH2 0x511 DUP3 PUSH2 0x4F2 JUMP JUMPDEST DUP5 DUP5 SLOAD PUSH2 0x46A JUMP JUMPDEST DUP3 SSTORE POP POP POP POP JUMP JUMPDEST PUSH1 0x0 SWAP1 JUMP JUMPDEST PUSH2 0x52E PUSH2 0x521 JUMP JUMPDEST PUSH2 0x539 DUP2 DUP5 DUP5 PUSH2 0x4FC JUMP JUMPDEST POP POP POP JUMP JUMPDEST JUMPDEST DUP2 DUP2 LT ISZERO PUSH2 0x55D JUMPI PUSH2 0x552 PUSH1 0x0 DUP3 PUSH2 0x526 JUMP JUMPDEST PUSH1 0x1 DUP2 ADD SWAP1 POP PUSH2 0x53F JUMP JUMPDEST POP POP JUMP JUMPDEST PUSH1 0x1F DUP3 GT ISZERO PUSH2 0x5A2 JUMPI PUSH2 0x573 DUP2 PUSH2 0x438 JUMP JUMPDEST PUSH2 0x57C DUP5 PUSH2 0x44D JUMP JUMPDEST DUP2 ADD PUSH1 0x20 DUP6 LT ISZERO PUSH2 0x58B JUMPI DUP2 SWAP1 POP JUMPDEST PUSH2 0x59F PUSH2 0x597 DUP6 PUSH2 0x44D JUMP JUMPDEST DUP4 ADD DUP3 PUSH2 0x53E JUMP JUMPDEST POP POP JUMPDEST POP POP POP JUMP JUMPDEST PUSH1 0x0 DUP3 DUP3 SHR SWAP1 POP SWAP3 SWAP2 POP POP JUMP JUMPDEST PUSH1 0x0 PUSH2 0x5C5 PUSH1 0x0 NOT DUP5 PUSH1 0x8 MUL PUSH2 0x5A7 JUMP JUMPDEST NOT DUP1 DUP4 AND SWAP2 POP POP SWAP3 SWAP2 POP POP JUMP JUMPDEST PUSH1 0x0 PUSH2 0x5DE DUP4 DUP4 PUSH2 0x5B4 JUMP JUMPDEST SWAP2 POP DUP3 PUSH1 0x2 MUL DUP3 OR SWAP1 POP SWAP3 SWAP2 POP POP JUMP JUMPDEST PUSH2 0x5F7 DUP3 PUSH2 0x3CD JUMP JUMPDEST PUSH8 0xFFFFFFFFFFFFFFFF DUP2 GT ISZERO PUSH2 0x610 JUMPI PUSH2 0x60F PUSH2 0x153 JUMP JUMPDEST JUMPDEST PUSH2 0x61A DUP3 SLOAD PUSH2 0x407 JUMP JUMPDEST PUSH2 0x625 DUP3 DUP3 DUP6 PUSH2 0x561 JUMP JUMPDEST PUSH1 0x0 PUSH1 0x20 SWAP1 POP PUSH1 0x1F DUP4 GT PUSH1 0x1 DUP2 EQ PUSH2 0x658 JUMPI PUSH1 0x0 DUP5 ISZERO PUSH2 0x646 JUMPI DUP3 DUP8 ADD MLOAD SWAP1 POP JUMPDEST PUSH2 0x650 DUP6 DUP3 PUSH2 0x5D2 JUMP JUMPDEST DUP7 SSTORE POP PUSH2 0x6B8 JUMP JUMPDEST PUSH1 0x1F NOT DUP5 AND PUSH2 0x666 DUP7 PUSH2 0x438 JUMP JUMPDEST PUSH1 0x0 JUMPDEST DUP3 DUP2 LT ISZERO PUSH2 0x68E JUMPI DUP5 DUP10 ADD MLOAD DUP3 SSTORE PUSH1 0x1 DUP3 ADD SWAP2 POP PUSH1 0x20 DUP6 ADD SWAP5 POP PUSH1 0x20 DUP2 ADD SWAP1 POP PUSH2 0x669 JUMP JUMPDEST DUP7 DUP4 LT ISZERO PUSH2 0x6AB JUMPI DUP5 DUP10 ADD MLOAD PUSH2 0x6A7 PUSH1 0x1F DUP10 AND DUP3 PUSH2 0x5B4 JUMP JUMPDEST DUP4 SSTORE POP JUMPDEST PUSH1 0x1 PUSH1 0x2 DUP9 MUL ADD DUP9 SSTORE POP POP POP JUMPDEST POP POP POP POP POP POP JUMP JUMPDEST PUSH2 0x8B1 DUP1 PUSH2 0x6CF PUSH1 0x0 CODECOPY PUSH1 0x0 RETURN INVALID PUSH1 0x80 PUSH1 0x40 MSTORE CALLVALUE DUP1 ISZERO PUSH2 0x10 JUMPI PUSH1 0x0 DUP1 REVERT JUMPDEST POP PUSH1 0x4 CALLDATASIZE LT PUSH2 0x4C JUMPI PUSH1 0x0 CALLDATALOAD PUSH1 0xE0 SHR DUP1 PUSH4 0x4A3BF377 EQ PUSH2 0x51 JUMPI DUP1 PUSH4 0x8D4B44D9 EQ PUSH2 0x81 JUMPI DUP1 PUSH4 0xB13C744B EQ PUSH2 0xB1 JUMPI DUP1 PUSH4 0xFC36E15B EQ PUSH2 0xE1 JUMPI JUMPDEST PUSH1 0x0 DUP1 REVERT JUMPDEST PUSH2 0x6B PUSH1 0x4 DUP1 CALLDATASIZE SUB DUP2 ADD SWAP1 PUSH2 0x66 SWAP2 SWAP1 PUSH2 0x499 JUMP JUMPDEST PUSH2 0xFD JUMP JUMPDEST PUSH1 0x40 MLOAD PUSH2 0x78 SWAP2 SWAP1 PUSH2 0x4FB JUMP JUMPDEST PUSH1 0x40 MLOAD DUP1 SWAP2 SUB SWAP1 RETURN JUMPDEST PUSH2 0x9B PUSH1 0x4 DUP1 CALLDATASIZE SUB DUP2 ADD SWAP1 PUSH2 0x96 SWAP2 SWAP1 PUSH2 0x499 JUMP JUMPDEST PUSH2 0x16D JUMP JUMPDEST PUSH1 0x40 MLOAD PUSH2 0xA8 SWAP2 SWAP1 PUSH2 0x4FB JUMP JUMPDEST PUSH1 0x40 MLOAD DUP1 SWAP2 SUB SWAP1 RETURN JUMPDEST PUSH2 0xCB PUSH1 0x4 DUP1 CALLDATASIZE SUB DUP2 ADD SWAP1 PUSH2 0xC6 SWAP2 SWAP1 PUSH2 0x542 JUMP JUMPDEST PUSH2 0x19B JUMP JUMPDEST PUSH1 0x40 MLOAD PUSH2 0xD8 SWAP2 SWAP1 PUSH2 0x5EE JUMP JUMPDEST PUSH1 0x40 MLOAD DUP1 SWAP2 SUB SWAP1 RETURN JUMPDEST PUSH2 0xFB PUSH1 0x4 DUP1 CALLDATASIZE SUB DUP2 ADD SWAP1 PUSH2 0xF6 SWAP2 SWAP1 PUSH2 0x499 JUMP JUMPDEST PUSH2 0x247 JUMP JUMPDEST STOP JUMPDEST PUSH1 0x0 PUSH2 0x108 DUP3 PUSH2 0x2C8 JUMP JUMPDEST PUSH2 0x147 JUMPI PUSH1 0x40 MLOAD PUSH32 0x8C379A000000000000000000000000000000000000000000000000000000000 DUP2 MSTORE PUSH1 0x4 ADD PUSH2 0x13E SWAP1 PUSH2 0x65C JUMP JUMPDEST PUSH1 0x40 MLOAD DUP1 SWAP2 SUB SWAP1 REVERT JUMPDEST PUSH1 0x0 DUP3 PUSH1 0x40 MLOAD PUSH2 0x157 SWAP2 SWAP1 PUSH2 0x6B8 JUMP JUMPDEST SWAP1 DUP2 MSTORE PUSH1 0x20 ADD PUSH1 0x40 MLOAD DUP1 SWAP2 SUB SWAP1 KECCAK256 SLOAD SWAP1 POP SWAP2 SWAP1 POP JUMP JUMPDEST PUSH1 0x0 DUP2 DUP1 MLOAD PUSH1 0x20 DUP2 ADD DUP3 ADD DUP1 MLOAD DUP5 DUP3 MSTORE PUSH1 0x20 DUP4 ADD PUSH1 0x20 DUP6 ADD KECCAK256 DUP2 DUP4 MSTORE DUP1 SWAP6 POP POP POP POP POP POP PUSH1 0x0 SWAP2 POP SWAP1 POP SLOAD DUP2 JUMP JUMPDEST PUSH1 0x1 DUP2 DUP2 SLOAD DUP2 LT PUSH2 0x1AB JUMPI PUSH1 0x0 DUP1 REVERT JUMPDEST SWAP1 PUSH1 0x0 MSTORE PUSH1 0x20 PUSH1 0x0 KECCAK256 ADD PUSH1 0x0 SWAP2 POP SWAP1 POP DUP1 SLOAD PUSH2 0x1C6 SWAP1 PUSH2 0x6FE JUMP JUMPDEST DUP1 PUSH1 0x1F ADD PUSH1 0x20 DUP1 SWAP2 DIV MUL PUSH1 0x20 ADD PUSH1 0x40 MLOAD SWAP1 DUP2 ADD PUSH1 0x40 MSTORE DUP1 SWAP3 SWAP2 SWAP1 DUP2 DUP2 MSTORE PUSH1 0x20 ADD DUP3 DUP1 SLOAD PUSH2 0x1F2 SWAP1 PUSH2 0x6FE JUMP JUMPDEST DUP1 ISZERO PUSH2 0x23F JUMPI DUP1 PUSH1 0x1F LT PUSH2 0x214 JUMPI PUSH2 0x100 DUP1 DUP4 SLOAD DIV MUL DUP4 MSTORE SWAP2 PUSH1 0x20 ADD SWAP2 PUSH2 0x23F JUMP JUMPDEST DUP3 ADD SWAP2 SWAP1 PUSH1 0x0 MSTORE PUSH1 0x20 PUSH1 0x0 KECCAK256 SWAP1 JUMPDEST DUP2 SLOAD DUP2 MSTORE SWAP1 PUSH1 0x1 ADD SWAP1 PUSH1 0x20 ADD DUP1 DUP4 GT PUSH2 0x222 JUMPI DUP3 SWAP1 SUB PUSH1 0x1F AND DUP3 ADD SWAP2 JUMPDEST POP POP POP POP POP DUP2 JUMP JUMPDEST PUSH2 0x250 DUP2 PUSH2 0x2C8 JUMP JUMPDEST PUSH2 0x28F JUMPI PUSH1 0x40 MLOAD PUSH32 0x8C379A000000000000000000000000000000000000000000000000000000000 DUP2 MSTORE PUSH1 0x4 ADD PUSH2 0x286 SWAP1 PUSH2 0x65C JUMP JUMPDEST PUSH1 0x40 MLOAD DUP1 SWAP2 SUB SWAP1 REVERT JUMPDEST PUSH1 0x1 PUSH1 0x0 DUP3 PUSH1 0x40 MLOAD PUSH2 0x2A1 SWAP2 SWAP1 PUSH2 0x6B8 JUMP JUMPDEST SWAP1 DUP2 MSTORE PUSH1 0x20 ADD PUSH1 0x40 MLOAD DUP1 SWAP2 SUB SWAP1 KECCAK256 PUSH1 0x0 DUP3 DUP3 SLOAD PUSH2 0x2BE SWAP2 SWAP1 PUSH2 0x75E JUMP JUMPDEST SWAP3 POP POP DUP2 SWAP1 SSTORE POP POP JUMP JUMPDEST PUSH1 0x0 DUP1 PUSH1 0x0 SWAP1 POP JUMPDEST PUSH1 0x1 DUP1 SLOAD SWAP1 POP DUP2 LT ISZERO PUSH2 0x334 JUMPI DUP3 DUP1 MLOAD SWAP1 PUSH1 0x20 ADD KECCAK256 PUSH1 0x1 DUP3 DUP2 SLOAD DUP2 LT PUSH2 0x2F9 JUMPI PUSH2 0x2F8 PUSH2 0x792 JUMP JUMPDEST JUMPDEST SWAP1 PUSH1 0x0 MSTORE PUSH1 0x20 PUSH1 0x0 KECCAK256 ADD PUSH1 0x40 MLOAD PUSH2 0x310 SWAP2 SWAP1 PUSH2 0x864 JUMP JUMPDEST PUSH1 0x40 MLOAD DUP1 SWAP2 SUB SWAP1 KECCAK256 SUB PUSH2 0x327 JUMPI PUSH1 0x1 SWAP2 POP POP PUSH2 0x33A JUMP JUMPDEST DUP1 DUP1 PUSH1 0x1 ADD SWAP2 POP POP PUSH2 0x2D0 JUMP JUMPDEST POP PUSH1 0x0 SWAP1 POP JUMPDEST SWAP2 SWAP1 POP JUMP JUMPDEST PUSH1 0x0 PUSH1 0x40 MLOAD SWAP1 POP SWAP1 JUMP JUMPDEST PUSH1 0x0 DUP1 REVERT JUMPDEST PUSH1 0x0 DUP1 REVERT JUMPDEST PUSH1 0x0 DUP1 REVERT JUMPDEST PUSH1 0x0 DUP1 REVERT JUMPDEST PUSH1 0x0 PUSH1 0x1F NOT PUSH1 0x1F DUP4 ADD AND SWAP1 POP SWAP2 SWAP1 POP JUMP JUMPDEST PUSH32 0x4E487B7100000000000000000000000000000000000000000000000000000000 PUSH1 0x0 MSTORE PUSH1 0x41 PUSH1 0x4 MSTORE PUSH1 0x24 PUSH1 0x0 REVERT JUMPDEST PUSH2 0x3A6 DUP3 PUSH2 0x35D JUMP JUMPDEST DUP2 ADD DUP2 DUP2 LT PUSH8 0xFFFFFFFFFFFFFFFF DUP3 GT OR ISZERO PUSH2 0x3C5 JUMPI PUSH2 0x3C4 PUSH2 0x36E JUMP JUMPDEST JUMPDEST DUP1 PUSH1 0x40 MSTORE POP POP POP JUMP JUMPDEST PUSH1 0x0 PUSH2 0x3D8 PUSH2 0x33F JUMP JUMPDEST SWAP1 POP PUSH2 0x3E4 DUP3 DUP3 PUSH2 0x39D JUMP JUMPDEST SWAP2 SWAP1 POP JUMP JUMPDEST PUSH1 0x0 PUSH8 0xFFFFFFFFFFFFFFFF DUP3 GT ISZERO PUSH2 0x404 JUMPI PUSH2 0x403 PUSH2 0x36E JUMP JUMPDEST JUMPDEST PUSH2 0x40D DUP3 PUSH2 0x35D JUMP JUMPDEST SWAP1 POP PUSH1 0x20 DUP2 ADD SWAP1 POP SWAP2 SWAP1 POP JUMP JUMPDEST DUP3 DUP2 DUP4 CALLDATACOPY PUSH1 0x0 DUP4 DUP4 ADD MSTORE POP POP POP JUMP JUMPDEST PUSH1 0x0 PUSH2 0x43C PUSH2 0x437 DUP5 PUSH2 0x3E9 JUMP JUMPDEST PUSH2 0x3CE JUMP JUMPDEST SWAP1 POP DUP3 DUP2 MSTORE PUSH1 0x20 DUP2 ADD DUP5 DUP5 DUP5 ADD GT ISZERO PUSH2 0x458 JUMPI PUSH2 0x457 PUSH2 0x358 JUMP JUMPDEST JUMPDEST PUSH2 0x463 DUP5 DUP3 DUP6 PUSH2 0x41A JUMP JUMPDEST POP SWAP4 SWAP3 POP POP POP JUMP JUMPDEST PUSH1 0x0 DUP3 PUSH1 0x1F DUP4 ADD SLT PUSH2 0x480 JUMPI PUSH2 0x47F PUSH2 0x353 JUMP JUMPDEST JUMPDEST DUP2 CALLDATALOAD PUSH2 0x490 DUP5 DUP3 PUSH1 0x20 DUP7 ADD PUSH2 0x429 JUMP JUMPDEST SWAP2 POP POP SWAP3 SWAP2 POP POP JUMP JUMPDEST PUSH1 0x0 PUSH1 0x20 DUP3 DUP5 SUB SLT ISZERO PUSH2 0x4AF JUMPI PUSH2 0x4AE PUSH2 0x349 JUMP JUMPDEST JUMPDEST PUSH1 0x0 DUP3 ADD CALLDATALOAD PUSH8 0xFFFFFFFFFFFFFFFF DUP2 GT ISZERO PUSH2 0x4CD JUMPI PUSH2 0x4CC PUSH2 0x34E JUMP JUMPDEST JUMPDEST PUSH2 0x4D9 DUP5 DUP3 DUP6 ADD PUSH2 0x46B JUMP JUMPDEST SWAP2 POP POP SWAP3 SWAP2 POP POP JUMP JUMPDEST PUSH1 0x0 DUP2 SWAP1 POP SWAP2 SWAP1 POP JUMP JUMPDEST PUSH2 0x4F5 DUP2 PUSH2 0x4E2 JUMP JUMPDEST DUP3 MSTORE POP POP JUMP JUMPDEST PUSH1 0x0 PUSH1 0x20 DUP3 ADD SWAP1 POP PUSH2 0x510 PUSH1 0x0 DUP4 ADD DUP5 PUSH2 0x4EC JUMP JUMPDEST SWAP3 SWAP2 POP POP JUMP JUMPDEST PUSH2 0x51F DUP2 PUSH2 0x4E2 JUMP JUMPDEST DUP2 EQ PUSH2 0x52A JUMPI PUSH1 0x0 DUP1 REVERT JUMPDEST POP JUMP JUMPDEST PUSH1 0x0 DUP2 CALLDATALOAD SWAP1 POP PUSH2 0x53C DUP2 PUSH2 0x516 JUMP JUMPDEST SWAP3 SWAP2 POP POP JUMP JUMPDEST PUSH1 0x0 PUSH1 0x20 DUP3 DUP5 SUB SLT ISZERO PUSH2 0x558 JUMPI PUSH2 0x557 PUSH2 0x349 JUMP JUMPDEST JUMPDEST PUSH1 0x0 PUSH2 0x566 DUP5 DUP3 DUP6 ADD PUSH2 0x52D JUMP JUMPDEST SWAP2 POP POP SWAP3 SWAP2 POP POP JUMP JUMPDEST PUSH1 0x0 DUP2 MLOAD SWAP1 POP SWAP2 SWAP1 POP JUMP JUMPDEST PUSH1 0x0 DUP3 DUP3 MSTORE PUSH1 0x20 DUP3 ADD SWAP1 POP SWAP3 SWAP2 POP POP JUMP JUMPDEST PUSH1 0x0 JUMPDEST DUP4 DUP2 LT ISZERO PUSH2 0x5A9 JUMPI DUP1 DUP3 ADD MLOAD DUP2 DUP5 ADD MSTORE PUSH1 0x20 DUP2 ADD SWAP1 POP PUSH2 0x58E JUMP JUMPDEST PUSH1 0x0 DUP5 DUP5 ADD MSTORE POP POP POP POP JUMP JUMPDEST PUSH1 0x0 PUSH2 0x5C0 DUP3 PUSH2 0x56F JUMP JUMPDEST PUSH2 0x5CA DUP2 DUP6 PUSH2 0x57A JUMP JUMPDEST SWAP4 POP PUSH2 0x5DA DUP2 DUP6 PUSH1 0x20 DUP7 ADD PUSH2 0x58B JUMP JUMPDEST PUSH2 0x5E3 DUP2 PUSH2 0x35D JUMP JUMPDEST DUP5 ADD SWAP2 POP POP SWAP3 SWAP2 POP POP JUMP JUMPDEST PUSH1 0x0 PUSH1 0x20 DUP3 ADD SWAP1 POP DUP2 DUP2 SUB PUSH1 0x0 DUP4 ADD MSTORE PUSH2 0x608 DUP2 DUP5 PUSH2 0x5B5 JUMP JUMPDEST SWAP1 POP SWAP3 SWAP2 POP POP JUMP JUMPDEST PUSH32 0x4E6F7420612076616C69642063616E6469646174650000000000000000000000 PUSH1 0x0 DUP3 ADD MSTORE POP JUMP JUMPDEST PUSH1 0x0 PUSH2 0x646 PUSH1 0x15 DUP4 PUSH2 0x57A JUMP JUMPDEST SWAP2 POP PUSH2 0x651 DUP3 PUSH2 0x610 JUMP JUMPDEST PUSH1 0x20 DUP3 ADD SWAP1 POP SWAP2 SWAP1 POP JUMP JUMPDEST PUSH1 0x0 PUSH1 0x20 DUP3 ADD SWAP1 POP DUP2 DUP2 SUB PUSH1 0x0 DUP4 ADD MSTORE PUSH2 0x675 DUP2 PUSH2 0x639 JUMP JUMPDEST SWAP1 POP SWAP2 SWAP1 POP JUMP JUMPDEST PUSH1 0x0 DUP2 SWAP1 POP SWAP3 SWAP2 POP POP JUMP JUMPDEST PUSH1 0x0 PUSH2 0x692 DUP3 PUSH2 0x56F JUMP JUMPDEST PUSH2 0x69C DUP2 DUP6 PUSH2 0x67C JUMP JUMPDEST SWAP4 POP PUSH2 0x6AC DUP2 DUP6 PUSH1 0x20 DUP7 ADD PUSH2 0x58B JUMP JUMPDEST DUP1 DUP5 ADD SWAP2 POP POP SWAP3 SWAP2 POP POP JUMP JUMPDEST PUSH1 0x0 PUSH2 0x6C4 DUP3 DUP5 PUSH2 0x687 JUMP JUMPDEST SWAP2 POP DUP2 SWAP1 POP SWAP3 SWAP2 POP POP JUMP JUMPDEST PUSH32 0x4E487B7100000000000000000000000000000000000000000000000000000000 PUSH1 0x0 MSTORE PUSH1 0x22 PUSH1 0x4 MSTORE PUSH1 0x24 PUSH1 0x0 REVERT JUMPDEST PUSH1 0x0 PUSH1 0x2 DUP3 DIV SWAP1 POP PUSH1 0x1 DUP3 AND DUP1 PUSH2 0x716 JUMPI PUSH1 0x7F DUP3 AND SWAP2 POP JUMPDEST PUSH1 0x20 DUP3 LT DUP2 SUB PUSH2 0x729 JUMPI PUSH2 0x728 PUSH2 0x6CF JUMP JUMPDEST JUMPDEST POP SWAP2 SWAP1 POP JUMP JUMPDEST PUSH32 0x4E487B7100000000000000000000000000000000000000000000000000000000 PUSH1 0x0 MSTORE PUSH1 0x11 PUSH1 0x4 MSTORE PUSH1 0x24 PUSH1 0x0 REVERT JUMPDEST PUSH1 0x0 PUSH2 0x769 DUP3 PUSH2 0x4E2 JUMP JUMPDEST SWAP2 POP PUSH2 0x774 DUP4 PUSH2 0x4E2 JUMP JUMPDEST SWAP3 POP DUP3 DUP3 ADD SWAP1 POP DUP1 DUP3 GT ISZERO PUSH2 0x78C JUMPI PUSH2 0x78B PUSH2 0x72F JUMP JUMPDEST JUMPDEST SWAP3 SWAP2 POP POP JUMP JUMPDEST PUSH32 0x4E487B7100000000000000000000000000000000000000000000000000000000 PUSH1 0x0 MSTORE PUSH1 0x32 PUSH1 0x4 MSTORE PUSH1 0x24 PUSH1 0x0 REVERT JUMPDEST PUSH1 0x0 DUP2 SWAP1 POP SWAP3 SWAP2 POP POP JUMP JUMPDEST PUSH1 0x0 DUP2 SWAP1 POP DUP2 PUSH1 0x0 MSTORE PUSH1 0x20 PUSH1 0x0 KECCAK256 SWAP1 POP SWAP2 SWAP1 POP JUMP JUMPDEST PUSH1 0x0 DUP2 SLOAD PUSH2 0x7EE DUP2 PUSH2 0x6FE JUMP JUMPDEST PUSH2 0x7F8 DUP2 DUP7 PUSH2 0x7C1 JUMP JUMPDEST SWAP5 POP PUSH1 0x1 DUP3 AND PUSH1 0x0 DUP2 EQ PUSH2 0x813 JUMPI PUSH1 0x1 DUP2 EQ PUSH2 0x828 JUMPI PUSH2 0x85B JUMP JUMPDEST PUSH1 0xFF NOT DUP4 AND DUP7 MSTORE DUP2 ISZERO ISZERO DUP3 MUL DUP7 ADD SWAP4 POP PUSH2 0x85B JUMP JUMPDEST PUSH2 0x831 DUP6 PUSH2 0x7CC JUMP JUMPDEST PUSH1 0x0 JUMPDEST DUP4 DUP2 LT ISZERO PUSH2 0x853 JUMPI DUP2 SLOAD DUP2 DUP10 ADD MSTORE PUSH1 0x1 DUP3 ADD SWAP2 POP PUSH1 0x20 DUP2 ADD SWAP1 POP PUSH2 0x834 JUMP JUMPDEST DUP4 DUP9 ADD SWAP6 POP POP POP JUMPDEST POP POP POP SWAP3 SWAP2 POP POP JUMP JUMPDEST PUSH1 0x0 PUSH2 0x870 DUP3 DUP5 PUSH2 0x7E1 JUMP JUMPDEST SWAP2 POP DUP2 SWAP1 POP SWAP3 SWAP2 POP POP JUMP INVALID LOG2 PUSH5 0x6970667358 0x22 SLT KECCAK256 0xC8 0xB7 PUSH29 0x4F9522D36117BA6314AE55CE1A97C06605BAF36E260F7990B68E14C501 PUSH5 0x736F6C6343 STOP ADDMOD SHR STOP CALLER "},"methodIdentifiers":{"candidateList(uint256)":"b13c744b","totalVotesFor(string)":"4a3bf377","vote(string)":"fc36e15b","votesReceived(string)":"8d4b44d9"}}}}}