{
  "_format": "hh-sol-artifact-1",
  "contractName": "SimpleStorage2",
  "sourceName": "contracts/fetched/FetchedContract.sol",
  "abi": [
    {
      "inputs": [],
      "stateMutability": "nonpayable",
      "type": "constructor"
    },
    {
      "anonymous": false,
      "inputs": [
        {
          "indexed": false,
          "internalType": "address",
          "name": "from",
          "type": "address"
        },
        {
          "indexed": false,
          "internalType": "uint256",
          "name": "amount",
          "type": "uint256"
        }
      ],
      "name": "EtherReceived",
      "type": "event"
    },
    {
      "anonymous": false,
      "inputs": [
        {
          "indexed": false,
          "internalType": "address",
          "name": "to",
          "type": "address"
        },
        {
          "indexed": false,
          "internalType": "uint256",
          "name": "amount",
          "type": "uint256"
        }
      ],
      "name": "EtherWithdrawn",
      "type": "event"
    },
    {
      "anonymous": false,
      "inputs": [
        {
          "indexed": false,
          "internalType": "uint256",
          "name": "newValue",
          "type": "uint256"
        },
        {
          "indexed": false,
          "internalType": "address",
          "name": "updatedBy",
          "type": "address"
        }
      ],
      "name": "ValueUpdated",
      "type": "event"
    },
    {
      "stateMutability": "payable",
      "type": "fallback"
    },
    {
      "inputs": [
        {
          "internalType": "address",
          "name": "",
          "type": "address"
        }
      ],
      "name": "deposits",
      "outputs": [
        {
          "internalType": "uint256",
          "name": "",
          "type": "uint256"
        }
      ],
      "stateMutability": "view",
      "type": "function"
    },
    {
      "inputs": [],
      "name": "getBalance",
      "outputs": [
        {
          "internalType": "uint256",
          "name": "",
          "type": "uint256"
        }
      ],
      "stateMutability": "view",
      "type": "function"
    },
    {
      "inputs": [
        {
          "internalType": "address",
          "name": "user",
          "type": "address"
        }
      ],
      "name": "getDeposit",
      "outputs": [
        {
          "internalType": "uint256",
          "name": "",
          "type": "uint256"
        }
      ],
      "stateMutability": "view",
      "type": "function"
    },
    {
      "inputs": [],
      "name": "owner",
      "outputs": [
        {
          "internalType": "address",
          "name": "",
          "type": "address"
        }
      ],
      "stateMutability": "view",
      "type": "function"
    },
    {
      "inputs": [],
      "name": "retrieve",
      "outputs": [
        {
          "internalType": "uint256",
          "name": "",
          "type": "uint256"
        }
      ],
      "stateMutability": "view",
      "type": "function"
    },
    {
      "inputs": [
        {
          "internalType": "uint256",
          "name": "num",
          "type": "uint256"
        }
      ],
      "name": "store",
      "outputs": [],
      "stateMutability": "nonpayable",
      "type": "function"
    },
    {
      "inputs": [
        {
          "internalType": "uint256",
          "name": "amount",
          "type": "uint256"
        }
      ],
      "name": "withdraw",
      "outputs": [],
      "stateMutability": "nonpayable",
      "type": "function"
    },
    {
      "stateMutability": "payable",
      "type": "receive"
    }
  ],
  "bytecode": "0x6080604052348015600f57600080fd5b5033600160006101000a81548173ffffffffffffffffffffffffffffffffffffffff021916908373ffffffffffffffffffffffffffffffffffffffff16021790555060008081905550610878806100676000396000f3fe6080604052600436106100745760003560e01c80636057361d1161004e5780636057361d1461021a5780638da5cb5b14610243578063e1254fba1461026e578063fc7e286d146102ab5761010a565b806312065fe01461019b5780632e1a7d4d146101c65780632e64cec1146101ef5761010a565b3661010a5734600260003373ffffffffffffffffffffffffffffffffffffffff1673ffffffffffffffffffffffffffffffffffffffff16815260200190815260200160002060008282546100c89190610596565b925050819055507f1e57e3bb474320be3d2c77138f75b7c3941292d647f5f9634e33a8e94e0e069b333460405161010092919061061a565b60405180910390a1005b34600260003373ffffffffffffffffffffffffffffffffffffffff1673ffffffffffffffffffffffffffffffffffffffff16815260200190815260200160002060008282546101599190610596565b925050819055507f1e57e3bb474320be3d2c77138f75b7c3941292d647f5f9634e33a8e94e0e069b333460405161019192919061061a565b60405180910390a1005b3480156101a757600080fd5b506101b06102e8565b6040516101bd9190610643565b60405180910390f35b3480156101d257600080fd5b506101ed60048036038101906101e8919061068f565b6102f0565b005b3480156101fb57600080fd5b5061020461048a565b6040516102119190610643565b60405180910390f35b34801561022657600080fd5b50610241600480360381019061023c919061068f565b610493565b005b34801561024f57600080fd5b506102586104d6565b60405161026591906106bc565b60405180910390f35b34801561027a57600080fd5b5061029560048036038101906102909190610703565b6104fc565b6040516102a29190610643565b60405180910390f35b3480156102b757600080fd5b506102d260048036038101906102cd9190610703565b610545565b6040516102df9190610643565b60405180910390f35b600047905090565b600160009054906101000a900473ffffffffffffffffffffffffffffffffffffffff1673ffffffffffffffffffffffffffffffffffffffff163373ffffffffffffffffffffffffffffffffffffffff1614610380576040517f08c379a00000000000000000000000000000000000000000000000000000000081526004016103779061078d565b60405180910390fd5b804710156103c3576040517f08c379a00000000000000000000000000000000000000000000000000000000081526004016103ba906107f9565b60405180910390fd5b600160009054906101000a900473ffffffffffffffffffffffffffffffffffffffff1673ffffffffffffffffffffffffffffffffffffffff166108fc829081150290604051600060405180830381858888f1935050505015801561042b573d6000803e3d6000fd5b507f06097061aeda806b5e9cb4133d9899f332ff0913956567fc0f7ea15e3d19947c600160009054906101000a900473ffffffffffffffffffffffffffffffffffffffff168260405161047f92919061061a565b60405180910390a150565b60008054905090565b806000819055507f96b66f199ddfd2b6ba158a38ed75afe9c9da657c856767e38803d16c1cf9451e81336040516104cb929190610819565b60405180910390a150565b600160009054906101000a900473ffffffffffffffffffffffffffffffffffffffff1681565b6000600260008373ffffffffffffffffffffffffffffffffffffffff1673ffffffffffffffffffffffffffffffffffffffff168152602001908152602001600020549050919050565b60026020528060005260406000206000915090505481565b6000819050919050565b7f4e487b7100000000000000000000000000000000000000000000000000000000600052601160045260246000fd5b60006105a18261055d565b91506105ac8361055d565b92508282019050808211156105c4576105c3610567565b5b92915050565b600073ffffffffffffffffffffffffffffffffffffffff82169050919050565b60006105f5826105ca565b9050919050565b610605816105ea565b82525050565b6106148161055d565b82525050565b600060408201905061062f60008301856105fc565b61063c602083018461060b565b9392505050565b6000602082019050610658600083018461060b565b92915050565b600080fd5b61066c8161055d565b811461067757600080fd5b50565b60008135905061068981610663565b92915050565b6000602082840312156106a5576106a461065e565b5b60006106b38482850161067a565b91505092915050565b60006020820190506106d160008301846105fc565b92915050565b6106e0816105ea565b81146106eb57600080fd5b50565b6000813590506106fd816106d7565b92915050565b6000602082840312156107195761071861065e565b5b6000610727848285016106ee565b91505092915050565b600082825260208201905092915050565b7f4f6e6c79206f776e65722063616e207769746864726177000000000000000000600082015250565b6000610777601783610730565b915061078282610741565b602082019050919050565b600060208201905081810360008301526107a68161076a565b9050919050565b7f496e73756666696369656e742062616c616e6365000000000000000000000000600082015250565b60006107e3601483610730565b91506107ee826107ad565b602082019050919050565b60006020820190508181036000830152610812816107d6565b9050919050565b600060408201905061082e600083018561060b565b61083b60208301846105fc565b939250505056fea2646970667358221220de423096da04c2434f64db387aec4e6bde60a7051e73f33f66a1ef94f3776e6c64736f6c634300081c0033",
  "linkReferences": {},
  "deployedLinkReferences": {}
}