{
  "_format": "hh-sol-artifact-1",
  "contractName": "Voting",
  "sourceName": "contracts/votingContract.sol",
  "abi": [
    {
      "inputs": [
        {
          "internalType": "string[]",
          "name": "candidates",
          "type": "string[]"
        }
      ],
      "stateMutability": "nonpayable",
      "type": "constructor"
    },
    {
      "inputs": [
        {
          "internalType": "uint256",
          "name": "",
          "type": "uint256"
        }
      ],
      "name": "candidateList",
      "outputs": [
        {
          "internalType": "string",
          "name": "",
          "type": "string"
        }
      ],
      "stateMutability": "view",
      "type": "function"
    },
    {
      "inputs": [
        {
          "internalType": "string",
          "name": "candidate",
          "type": "string"
        }
      ],
      "name": "totalVotesFor",
      "outputs": [
        {
          "internalType": "uint256",
          "name": "",
          "type": "uint256"
        }
      ],
      "stateMutability": "view",
      "type": "function"
    },
    {
      "inputs": [
        {
          "internalType": "string",
          "name": "candidate",
          "type": "string"
        }
      ],
      "name": "vote",
      "outputs": [],
      "stateMutability": "nonpayable",
      "type": "function"
    },
    {
      "inputs": [
        {
          "internalType": "string",
          "name": "",
          "type": "string"
        }
      ],
      "name": "votesReceived",
      "outputs": [
        {
          "internalType": "uint256",
          "name": "",
          "type": "uint256"
        }
      ],
      "stateMutability": "view",
      "type": "function"
    }
  ],
  "bytecode": "0x608060405234801561001057600080fd5b50604051610f80380380610f8083398181016040528101906100329190610384565b806001908051906020019061004892919061004f565b50506106c0565b828054828255906000526020600020908101928215610097579160200282015b8281111561009657825182908161008691906105ee565b509160200191906001019061006f565b5b5090506100a491906100a8565b5090565b5b808211156100c857600081816100bf91906100cc565b506001016100a9565b5090565b5080546100d890610407565b6000825580601f106100ea5750610109565b601f016020900490600052602060002090810190610108919061010c565b5b50565b5b8082111561012557600081600090555060010161010d565b5090565b6000604051905090565b600080fd5b600080fd5b600080fd5b6000601f19601f8301169050919050565b7f4e487b7100000000000000000000000000000000000000000000000000000000600052604160045260246000fd5b61018b82610142565b810181811067ffffffffffffffff821117156101aa576101a9610153565b5b80604052505050565b60006101bd610129565b90506101c98282610182565b919050565b600067ffffffffffffffff8211156101e9576101e8610153565b5b602082029050602081019050919050565b600080fd5b600080fd5b600067ffffffffffffffff82111561021f5761021e610153565b5b61022882610142565b9050602081019050919050565b60005b83811015610253578082015181840152602081019050610238565b60008484015250505050565b600061027261026d84610204565b6101b3565b90508281526020810184848401111561028e5761028d6101ff565b5b610299848285610235565b509392505050565b600082601f8301126102b6576102b561013d565b5b81516102c684826020860161025f565b91505092915050565b60006102e26102dd846101ce565b6101b3565b90508083825260208201905060208402830185811115610305576103046101fa565b5b835b8181101561034c57805167ffffffffffffffff81111561032a5761032961013d565b5b80860161033789826102a1565b85526020850194505050602081019050610307565b5050509392505050565b600082601f83011261036b5761036a61013d565b5b815161037b8482602086016102cf565b91505092915050565b60006020828403121561039a57610399610133565b5b600082015167ffffffffffffffff8111156103b8576103b7610138565b5b6103c484828501610356565b91505092915050565b600081519050919050565b7f4e487b7100000000000000000000000000000000000000000000000000000000600052602260045260246000fd5b6000600282049050600182168061041f57607f821691505b602082108103610432576104316103d8565b5b50919050565b60008190508160005260206000209050919050565b60006020601f8301049050919050565b600082821b905092915050565b60006008830261049a7fffffffffffffffffffffffffffffffffffffffffffffffffffffffffffffffff8261045d565b6104a4868361045d565b95508019841693508086168417925050509392505050565b6000819050919050565b6000819050919050565b60006104eb6104e66104e1846104bc565b6104c6565b6104bc565b9050919050565b6000819050919050565b610505836104d0565b610519610511826104f2565b84845461046a565b825550505050565b600090565b61052e610521565b6105398184846104fc565b505050565b5b8181101561055d57610552600082610526565b60018101905061053f565b5050565b601f8211156105a25761057381610438565b61057c8461044d565b8101602085101561058b578190505b61059f6105978561044d565b83018261053e565b50505b505050565b600082821c905092915050565b60006105c5600019846008026105a7565b1980831691505092915050565b60006105de83836105b4565b9150826002028217905092915050565b6105f7826103cd565b67ffffffffffffffff8111156106105761060f610153565b5b61061a8254610407565b610625828285610561565b600060209050601f8311600181146106585760008415610646578287015190505b61065085826105d2565b8655506106b8565b601f19841661066686610438565b60005b8281101561068e57848901518255600182019150602085019450602081019050610669565b868310156106ab57848901516106a7601f8916826105b4565b8355505b6001600288020188555050505b505050505050565b6108b1806106cf6000396000f3fe608060405234801561001057600080fd5b506004361061004c5760003560e01c80634a3bf377146100515780638d4b44d914610081578063b13c744b146100b1578063fc36e15b146100e1575b600080fd5b61006b60048036038101906100669190610499565b6100fd565b60405161007891906104fb565b60405180910390f35b61009b60048036038101906100969190610499565b61016d565b6040516100a891906104fb565b60405180910390f35b6100cb60048036038101906100c69190610542565b61019b565b6040516100d891906105ee565b60405180910390f35b6100fb60048036038101906100f69190610499565b610247565b005b6000610108826102c8565b610147576040517f08c379a000000000000000000000000000000000000000000000000000000000815260040161013e9061065c565b60405180910390fd5b60008260405161015791906106b8565b9081526020016040518091039020549050919050565b6000818051602081018201805184825260208301602085012081835280955050505050506000915090505481565b600181815481106101ab57600080fd5b9060005260206000200160009150905080546101c6906106fe565b80601f01602080910402602001604051908101604052809291908181526020018280546101f2906106fe565b801561023f5780601f106102145761010080835404028352916020019161023f565b820191906000526020600020905b81548152906001019060200180831161022257829003601f168201915b505050505081565b610250816102c8565b61028f576040517f08c379a00000000000000000000000000000000000000000000000000000000081526004016102869061065c565b60405180910390fd5b60016000826040516102a191906106b8565b908152602001604051809103902060008282546102be919061075e565b9250508190555050565b600080600090505b600180549050811015610334578280519060200120600182815481106102f9576102f8610792565b5b906000526020600020016040516103109190610864565b60405180910390200361032757600191505061033a565b80806001019150506102d0565b50600090505b919050565b6000604051905090565b600080fd5b600080fd5b600080fd5b600080fd5b6000601f19601f8301169050919050565b7f4e487b7100000000000000000000000000000000000000000000000000000000600052604160045260246000fd5b6103a68261035d565b810181811067ffffffffffffffff821117156103c5576103c461036e565b5b80604052505050565b60006103d861033f565b90506103e4828261039d565b919050565b600067ffffffffffffffff8211156104045761040361036e565b5b61040d8261035d565b9050602081019050919050565b82818337600083830152505050565b600061043c610437846103e9565b6103ce565b90508281526020810184848401111561045857610457610358565b5b61046384828561041a565b509392505050565b600082601f8301126104805761047f610353565b5b8135610490848260208601610429565b91505092915050565b6000602082840312156104af576104ae610349565b5b600082013567ffffffffffffffff8111156104cd576104cc61034e565b5b6104d98482850161046b565b91505092915050565b6000819050919050565b6104f5816104e2565b82525050565b600060208201905061051060008301846104ec565b92915050565b61051f816104e2565b811461052a57600080fd5b50565b60008135905061053c81610516565b92915050565b60006020828403121561055857610557610349565b5b60006105668482850161052d565b91505092915050565b600081519050919050565b600082825260208201905092915050565b60005b838110156105a957808201518184015260208101905061058e565b60008484015250505050565b60006105c08261056f565b6105ca818561057a565b93506105da81856020860161058b565b6105e38161035d565b840191505092915050565b6000602082019050818103600083015261060881846105b5565b905092915050565b7f4e6f7420612076616c69642063616e6469646174650000000000000000000000600082015250565b600061064660158361057a565b915061065182610610565b602082019050919050565b6000602082019050818103600083015261067581610639565b9050919050565b600081905092915050565b60006106928261056f565b61069c818561067c565b93506106ac81856020860161058b565b80840191505092915050565b60006106c48284610687565b915081905092915050565b7f4e487b7100000000000000000000000000000000000000000000000000000000600052602260045260246000fd5b6000600282049050600182168061071657607f821691505b602082108103610729576107286106cf565b5b50919050565b7f4e487b7100000000000000000000000000000000000000000000000000000000600052601160045260246000fd5b6000610769826104e2565b9150610774836104e2565b925082820190508082111561078c5761078b61072f565b5b92915050565b7f4e487b7100000000000000000000000000000000000000000000000000000000600052603260045260246000fd5b600081905092915050565b60008190508160005260206000209050919050565b600081546107ee816106fe565b6107f881866107c1565b9450600182166000811461081357600181146108285761085b565b60ff198316865281151582028601935061085b565b610831856107cc565b60005b8381101561085357815481890152600182019150602081019050610834565b838801955050505b50505092915050565b600061087082846107e1565b91508190509291505056fea2646970667358221220c8b77c4f9522d36117ba6314ae55ce1a97c06605baf36e260f7990b68e14c50164736f6c634300081c0033",
  "linkReferences": {},
  "deployedLinkReferences": {}
}